:020000040800F2
:10000000984C0020A9010008050D0008010D00080A
:10001000030D00080B0300082D0F0008000000006E
:10002000000000000000000000000000090D0008B2
:100030000D03000800000000070D00080B0D00086C
:10004000C3010008C3010008C3010008C301000880
:10005000C3010008C3010008C3010008C301000870
:10006000C3010008C3010008C3010008C301000860
:10007000C3010008C3010008C3010008C301000850
:10008000C3010008C3010008C3010008000000000C
:10009000000000000000000000000000C301000894
:1000A000C3010008C3010008C3010008C301000820
:1000B000C3010008C3010008C3010008C301000810
:1000C000C3010008C3010008C3010008C301000800
:1000D000C3010008C3010008C301000800000000BC
:1000E000C3010008C3010008C301000800000000AC
:1000F000000000000000000000000000C301000834
:1001000000000000C3010008C3010008C30100088B
:1001100000000000000000000000000000000000DF
:10012000C3010008C3010008C3010008C30100089F
:10013000C3010008000000000000000000000000F3
:10014000000000000000000000000000C3010008E3
:10015000C3010008C3010008C3010008C30100086F
:10016000C3010008C30100080000000000000000F7
:10017000000000000000000000000000000000007F
:1001800000000000C30100080000000000000000A3
:10019000C3010008DFF80CD000F07AF800480047EF
:1001A000E91A0008984C0020064880470648004796
:1001B000FEE7FEE7FEE7FEE7FEE7FEE7FEE7FEE717
:1001C000FEE7FEE7850D0008950100082DE9F05FC8
:1001D0000546002092469B468846064681464024B6
:1001E0001BE0284641464746224600F041F8534668
:1001F0005A46C01A914110D311461846224600F0C3
:1002000028F82D1A67EB01084F46224601200021ED
:1002100000F01FF817EB00094E41201EA4F1010465
:10022000DFDC484631462A464346BDE8F09FD2B25D
:1002300001E000F8012B491EFBD270470022F6E7CF
:1002400010B513460A4604461946FFF7F0FF20464C
:1002500010BD202A04DB203A00FA02F1002070478A
:100260009140C2F1200320FA03F3194390407047F4
:10027000202A04DB203A21FA02F00021704721FAFB
:1002800002F3D040C2F12002914008431946704762
:10029000064C074D06E0E06840F0010394E80700D3
:1002A00098471034AC42F6D3FFF778FFF44F0008BC
:1002B0001450000870B58C1810F8015B15F0070396
:1002C00001D110F8013B2A1106D110F8012B03E0EF
:1002D00010F8016B01F8016B5B1EF9D12B0705D4F7
:1002E0000023521E0DD401F8013BFAE710F8013B40
:1002F000CB1A921C03E013F8015B01F8015B521E5C
:10030000F9D5A142D8D3002070BDFEE770470000A8
:100310002DE9F84F00224FF0010803254FF00F0E92
:100320000B6808FA02F42340A34271D14E68012EF3
:1003300005D0022E03D0112E01D0122E15D18668C1
:10034000570005FA07FC26EA0C06D1F80CC00CFA97
:1003500007FC4CEA060CC0F808C04668A6430C79B6
:10036000C4F30014944034434460C668570005FA4F
:1003700007FC8C6826EA0C06BC403443C4604C6819
:10038000022C01D0122C13D1D40800EB8404A34614
:10039000D4F8209054074FEAD46A0EFA0AF629EAF4
:1003A00006090E6906FA0AF646EA0906CBF8206045
:1003B00004680E7924EA0C0406F00306BE402643C6
:1003C00006604C68E40056D52E4C266846F48046FC
:1003D0002660246822F0030604F4804400942A4C2A
:1003E0003444A446D4F808489607370F0EFA07F6A7
:1003F000B443264EB04201D1002615E0244EB0424F
:1004000001D1012610E0234EB04202D102260BE0BA
:1004100031E0214EB04201D1032605E01F4EB0422B
:1004200001D1042600E00726BE402643CCF8086828
:100430001B4E34684F689C43FF0300D51C43346057
:10044000174E361D34684F689C43BF0300D51C43CC
:100450003460134E083634684F689C43FF0200D561
:100460001C4334600E4E0C3634684F689C43BF0208
:1004700000D51C433460521C102AFFF451AFBDE874
:10048000F88F000044380240003001400000024074
:100490000004024000080240000C0240001002402C
:1004A000003C01400148806870470000400800207F
:1004B000024881680278114481607047400800203A
:1004C0000B4810B5016841F400710160016841F406
:1004D00080610160016841F480710160032000F0D7
:1004E00061F8002000F006F800F024F8002010BDAC
:1004F000003C024070B50D4D04464FF47A712878E7
:10050000B1FBF0F00A490968B1FBF0F000F0F6FA2F
:1005100048B9102C07D200222146501E00F022F8C4
:1005200000206C6070BD012070BD000040080020FC
:100530004C0800200A4808B5016841F48041016078
:10054000006800F4804000900548001F016841F0F9
:1005500080510160006800F08050009008BD0000EC
:1005600044380240F0B40E4B1B680C46C3F3022320
:10057000C3F10705042D00D90425191D072901D24F
:10058000002300E0DB1E012606FA05F1491E21408A
:1005900099409E40761E16403143F0BC00F0D8BC16
:1005A0000CED00E0064900F0070208684FF6FF0373
:1005B000184040EA0220034A1043086070470000D8
:1005C0000CED00E00000FA052DE9F0470E460500AD
:1005D00065D0DFF81481D8F80000F7B200F00F0002
:1005E000B04207D288F80070D8F8000000F00F0081
:1005F000B04254D128683D4C810712D5400703D53D
:10060000206840F4E05020602878000703D5206877
:1006100040F4604020602068A96820F0F0000843A2
:1006200020602878C0072DD0304968680839012833
:1006300012D0022813D0032811D009688907002995
:100640002DDA216821F0030101432160FFF72AFF21
:10065000814641F2883A0EE009688903EFE70968AC
:100660008901ECE7FFF71EFFA0EB0901514502D914
:100670000320BDE8F0872068696800F00C00B0EB4B
:10068000810FEFD1D8F80010404601F00F01B142C0
:1006900007D90770006800F00F00B04201D00120B8
:1006A000E7E72878400705D52068E96820F4E0509E
:1006B000084320602878000706D52068296920F4BF
:1006C000604040EAC100206000F038F82168084A24
:1006D000C1F30311515CC840064908600648006830
:1006E000FFF708FF0020C4E7003C02400838024042
:1006F000D94F00084C080020440800200448054950
:1007000000680968044AC1F38221515CC8407047FF
:100710004C08002008380240E94F00080448054909
:1007200000680968044AC1F34231515CC84070470F
:100730004C08002008380240E94F0008154810B561
:10074000006810F00C02144813D01449042A0FD08A
:10075000082A0ED10F4C241F2268236802F03F02A2
:100760005B0207D52068C0F38810A0FB010106E0FA
:10077000084610BD2168C1F38811A1FB00010023C8
:10078000FFF724FD2168C1F30141491C4900B0FB7A
:10079000F1F010BD083802400024F40040787D01DB
:1007A0002DE9F84F040076D02078DFF838A3CE4D3D
:1007B000C00749D0DAF800105046C1F38101012981
:1007C00008D00068C0F3810002280AD1281D006803
:1007D000400206D52868800336D560680028E2D03C
:1007E00032E06068B0F5803F10D0B0F5A02F2868E7
:1007F00010D020F480302860286820F48020286001
:100800006068A0B1FFF74EFE06460CE0286840F491
:100810008030F4E740F480202860F7E7FFF742FEDD
:10082000801B642873D828688003F7D50CE0FFF795
:1008300039FE064605E000BFFFF734FE801B642842
:10084000F0D828688003F7D42078DFF8A0828007EA
:100850004FF000093ED5DAF80010504611F00C0FA9
:1008600009D00068C0F3810002280BD19D48001F09
:100870000068400206D42868800715D5E068012882
:1008800009D111E0E068B8B10120C8F80000FFF715
:1008900009FE064605E020E1FFF704FE801B022862
:1008A000C0D828688007F7D52868216920F0F800AB
:1008B00040EAC10028600DE0C8F80090FFF7F2FDA3
:1008C000064604E0FFF7EEFD801B02281FD82868CB
:1008D0008007F7D42078000722D5824E84486169CA
:1008E0006C3671B101210160FFF7DCFD074604E0C1
:1008F000FFF7D8FDC01B022809D830688007F7D55C
:100900000EE0C0F80090FFF7CDFD074605E082E05D
:10091000FFF7C8FDC01B02287DD830688007F7D4D8
:100920002078400768D5DFF8BCB100270BF1380B01
:10093000DBF80000C0000BD4DBF8001041F0805160
:10094000CBF80010DBF80000012700F08050009089
:10095000684E3068C00510D4306840F48070306054
:10096000FFF7A0FD009005E0FFF79CFD0099401AFD
:10097000022850D83068C005F6D55A4EA0686836AF
:1009800001280FD00528306810D020F00100306019
:10099000306820F004003060A068B8B1FFF782FD35
:1009A00000900FE0306840F00100F4E740F00400F0
:1009B0003060F7E7FFF776FD0099411A41F2883081
:1009C000814266D830688007F4D50EE0FFF76AFDF3
:1009D000009007E0FFF766FD0099411A41F2883068
:1009E000814256D830688007F4D42FB1DBF800106C
:1009F00021F08051CBF80010A069D0B3DAF80020C4
:100A00005146C2F38102022A4AD00228484607D042
:100A1000C8F8600000E03CE0FFF744FD04463BE01E
:100A20004746C8F86000FFF73DFD064605E000BFF9
:100A3000FFF738FD801B02282BD828688001F7D4E7
:100A4000D4E907010843A16A2B4A490802EB014196
:100A5000626A41EA8211084394F82C1040EA01616D
:100A60002048001F016001203866FFF71BFD044687
:100A700005E034E0FFF716FD001B022809D82868BE
:100A80008001F7D52BE000BFFFF70CFD001B02280B
:100A900002D90320BDE8F88F28688001F4D41EE055
:100AA0000128F7D00868E26900F48001914214D16E
:100AB000226A00F03F0191420FD147F6C071626A8D
:100AC0000140914209D1A26A00F44031914204D11F
:100AD000E16A00F07060884201D00120DAE700206E
:100AE000D8E70000083802400038024000004742C2
:100AF000800E4742007000400000FFFF10B5401E0E
:100B0000B0F1807F01D3012010BD4FF0E02460617F
:100B10000F21601700F01CFA0020A061072020615F
:100B2000002010BD70B5040004D094F839000025F1
:100B300010B106E0012070BD84F83850204600F066
:100B400023F8242084F839002068C16821F400517A
:100B5000C160204600F024F92068016921F4904129
:100B600001612068416921F02A0141612068C16862
:100B700041F40051C160E563202084F8390084F815
:100B80003A00002070BD000010B586B00446142164
:100B90006846FFF753FB14492068884221D1134867
:100BA000016841F010010160006800F0100005903C
:100BB0000E481438016841F001010160006869467F
:100BC00000F0010005904FF4C060009002200190F9
:100BD0000120029003200390072004900448FFF7AF
:100BE00097FB06B010BD00000010014044380240E1
:100BF0000000024090F83A30202B22D1F9B1F2B136
:100C000090F83830012B1CD081628285C28500218A
:100C1000C163222280F83A2080F838100168CA683F
:100C200042F48072CA6001684A6942F001024A6176
:100C30000068C16841F02001C160002070470120B8
:100C40007047022070472DE9F843044690F83900B8
:100C50001F4616460D46202850D1B5B1AEB194F8C6
:100C6000380001284AD0012084F838004FF00008ED
:100C7000C4F83C80212084F83900FFF713FCA684D7
:100C80008146E68484F8388026E00120BDE8F883B8
:100C9000E08C401EE084A0684B46B0F5805F4FF0CA
:100CA00000024FF080012046009703D000F00CF9BD
:100CB000E8B90DE000F008F9C8B928882168C0F348
:100CC00008004860206908B16D1C05E0AD1C03E018
:100CD000216815F8010B4860E08C0028D8D14B46FC
:100CE000002240212046009700F0EEF808B10320D2
:100CF000CCE7202084F839000020C7E70220C5E7B0
:100D0000FEE7FEE7704770477047FFF7D1BB000072
:100D100010B592B030216846FFF790FA14210CA864
:100D2000FFF78CFA15480024016841F080510160FA
:100D3000006800F0805011901148016821F4404192
:100D400041F4004101600068069400F440401190B5
:100D50000220009001200390102004906846FFF7C5
:100D60001FFD0F20CDE90C04A020CDE90E040021C9
:100D70000CA81094FFF728FC12B010BD40380240B8
:100D8000007000400548016841F4700101600349AA
:100D90004FF00060803908607047000088ED00E087
:100DA0002DE9F041044600680169E26821F44051F0
:100DB000114301612169A068E26908436169114337
:100DC00008432168CA6849F20C639A430243CA6027
:100DD00020684169A26921F4407111434161E069D1
:100DE000192764253226B0F5004F354A3549206869
:100DF0004FF0000806D0884201D0904236D1FFF76C
:100E00008DFC35E0884201D0904202D1FFF786FC8C
:100E100001E0FFF773FC61684A18A0FB070148EB8B
:100E20000803FFF7D3F90146B0FBF5F00201B1FB6F
:100E3000F5F06FF01803584301EB800006EBC0009B
:100E4000B0FBF5F000F0F80002EB4002B1FBF5F06A
:100E5000584301EB800006EBC000B0FBF5F000F05A
:100E60000700216810448860BDE8F081FFF746FC68
:100E700061688B0F8A00A0FB0701FFF7A7F9014605
:100E8000B0FBF5F06FF01802504301EB800006EB69
:100E90000010B0FBF5F000F0F002B1FBF5F002EB52
:100EA0000012B1FBF5F06FF01803584301EB80001E
:100EB00006EB0010B0FBF5F000F00F00D1E70000EA
:100EC00000140140001001402DE9F04198461746FA
:100ED0000E460446069D1DE0681C1BD02DB1FFF791
:100EE000E1FAA0EB0800A84214D92068C16821F4F7
:100EF000D071C1602068416921F001014161202069
:100F000084F8390084F83A00002084F8380003207F
:100F1000BDE8F0812068006836EA000004D00020B7
:100F2000B842D9D00020F3E70120F9E7FEE700003E
:100F30000FB4054B10B503A9044A029800F027F836
:100F400010BC5DF814FB0000A51700085008002035
:100F50000907090E002804DB00F1E02080F80014E6
:100F6000704700F00F0000F1E02080F8141D70477A
:100F700002E008C8121F08C1002AFAD17047704762
:100F8000002001E001C1121F002AFBD170472DE9AA
:100F9000F84F9946924688460546002706E02528E0
:100FA0000AD051464A4690476D1C7F1C287800287D
:100FB000F5D13846BDE8F88F002315F8011F184613
:100FC0002E2915D115F8011F04232A290DD06FF001
:100FD0002F022978A1F13004092C09D800EB8000F8
:100FE00002EB400008446D1CF3E758F8040B6D1C3D
:100FF0002A78002ADDD0632A07D0732A0FD0104642
:1010000051464A4690477F1C2AE018F8042B8DF879
:10101000002000218DF801106E46012103E058F8F0
:10102000046B4FF0FF315A074FF0000401D409E080
:10103000641C84420BDA8C42FADB325D002AF7D161
:1010400005E0641C8C42FCDB305D0028F9D12744AC
:1010500004E016F8010B51464A469047641EF8D248
:101060006D1CA3E770B5084C608900F027FE0546AB
:101070006089401C80B200F021FE45EA0020E0813A
:101080006089801C608170BD0800002070B50D4C27
:10109000608900F013FE05466089401C80B200F0B4
:1010A0000DFE45EA0020E27800F47F411044E08123
:1010B00000F47F40884201D0012020726089801CAA
:1010C000608170BD0800002070B50D4C608900F093
:1010D000F5FD05466089401C80B200F0EFFD45EA51
:1010E0000020227900F47F411044E08100F47F4029
:1010F000884201D0012020726089801C608170BD0F
:10110000080000207047000070B52A4C0120E071F3
:1011100000F066FB6082A2786379111803F0010584
:10112000294489B2A1820D0A02D043F0010301E0F3
:1011300023F00103637111F0FF0FDBB202D023F043
:10114000020301E043F00203637181EA02034840B5
:1011500003401806607902D540F0400001E020F01D
:10116000400060710806607902D540F0800001E01F
:1011700020F080006071C0B2030719D520F0010390
:1011800002F00F006371092801D9921DA270D0B23C
:1011900000F0F002902A04D96030A07043F0010002
:1011A0006071D4E90A02401C42F10002C4E90A025B
:1011B000A17070BD0800002010B50E4C0120E07138
:1011C00000F00EFB6082A1780140A182607902D01C
:1011D00020F0020001E040F0020060710806607932
:1011E00002D540F0800001E020F080006071A17025
:1011F00010BD00000800002010B500F0F1FA1349FE
:101200004FF6FF72488202EA40008882020A4A7959
:1012100002D042F0010201E022F001024A7110F016
:10122000FF0FD2B202D022F0020201E042F002022D
:101230004A7102064A7902D542F0800201E022F0AA
:1012400080024A71BDE8104000F024BD0800002073
:101250000D4810B54179C90714D141898181028AAD
:1012600001F47F430A4402F47F4442810246A342D0
:10127000D2E90A1201D0891C00E0491C42F10002A7
:10128000C0E90A1210BD0000080000200D4810B58A
:101290004179C90714D041898181028A01F47F43D1
:1012A0000A4402F47F4442810246A342D2E90A1270
:1012B00001D0891C00E0491C42F10002C0E90A1279
:1012C00010BD0000080000200D4810B541798907C5
:1012D00014D541898181028A01F47F430A4402F4D2
:1012E0007F4442810246A342D2E90A1201D0891CFE
:1012F00000E0491C42F10002C0E90A1210BD0000E2
:101300000800002010B500F06BFA094948828A787D
:1013100002408A824A7902D022F0020201E042F0C1
:10132000020202F03F0200F0C00002434A7110BD09
:10133000080000200D4810B54179090614D54189EF
:101340008181028A01F47F430A4402F47F4442818E
:101350000246A342D2E90A1201D0891C00E0491CCE
:1013600042F10002C0E90A1210BD0000080000208E
:101370000D4810B54179890714D441898181028AC9
:1013800001F47F430A4402F47F4442810246A342AF
:10139000D2E90A1201D0891C00E0491C42F1000286
:1013A000C0E90A1210BD0000080000200D4810B569
:1013B0004179090614D441898181028A01F47F436D
:1013C0000A4402F47F4442810246A342D2E90A124F
:1013D00001D0891C00E0491C42F10002C0E90A1258
:1013E00010BD00000800002070B50E4C6089401C44
:1013F00080B2608100F02AFC607940F0100000F0BB
:101400003DFC607940F0040060714FF6FE7000F022
:1014100055FC05464FF6FF7000F050FC45EA0020F1
:10142000608170BD080000200D4810B54179490663
:1014300014D441898181028A01F47F430A4402F471
:101440007F4442810246A342D2E90A1201D0891C9C
:1014500000E0491C42F10002C0E90A1210BD000080
:10146000080000200D4810B54179490614D541897E
:101470008181028A01F47F430A4402F47F4442815D
:101480000246A342D2E90A1201D0891C00E0491C9D
:1014900042F10002C0E90A1210BD0000080000205D
:1014A0000248417921F00101417170470800002094
:1014B0000248417921F0080141717047080000207D
:1014C0000248417921F00401417170470800002071
:1014D0000248417921F04001417170470800002025
:1014E00010B5134C0120E07100F07AF96082A27807
:1014F000111A89B2C0B2A1829042607903D800BFAC
:1015000040F0010001E020F001006071C0B202D1A2
:1015100040F0020001E020F00200607108066079EE
:1015200002D540F0800001E020F08000607110BD25
:101530000800002010B500F053F911494882CB781B
:101540001A1A92B2C0B28A829842487903D800BF70
:1015500040F0010001E020F001004871C0B202D16A
:1015600040F0020001E020F00200487110064879C6
:1015700002D540F0800001E020F08000487110BDED
:101580000800002010B500F02BF9114948820B79B2
:101590001A1A92B2C0B28A829842487903D800BF20
:1015A00040F0010001E020F001004871C0B202D11A
:1015B00040F0020001E020F0020048711006487976
:1015C00002D540F0800001E020F08000487110BD9D
:1015D0000800002010B500F013F8FFF781FF07485E
:1015E000C179002909D0017A002906D0D0E90A1270
:1015F000491E42F1FF32C0E90A1210BD0800002066
:1016000010B500F0EDF80E494882401E80B2888285
:101610004A7910F0FF0F02D022F0020201E042F0FE
:1016200002024A7102064A7902D542F0800201E0C4
:1016300022F080024A71BDE8104000F02BBB000090
:10164000080000200C480246C178491E11F0FF0135
:10165000C170527902D022F0020201E042F002028F
:1016600009064271D1B202D541F0800101E021F0BA
:101670008001417170470000080000200C480246BC
:101680000179491E11F0FF010171527902D022F057
:10169000020201E042F0020209064271D1B202D513
:1016A00041F0800101E021F08001417170470000AC
:1016B0000800002010B50F4C0120E07100F090F8F8
:1016C0006082A1784140A182607911F0FF0F02D0C1
:1016D00020F0020001E040F002006071080660792D
:1016E00002D540F0800001E020F080006071A17020
:1016F00010BD0000080000202DE9F041264CD4E97F
:101700000C3218184A41C4E90C02D4E90A6734E0E3
:101710006089411C618100F0D1FAA07161790025D6
:1017200041F0200161711C49E5713831257251F891
:10173000200080471948A17950F8210080471848B7
:10174000A17950F82100D4E90A1240185541C4E9A2
:101750000A05E17931B1217A21B1401C45F100013E
:10176000C4E90A01D4E90801401C41F10001C4E9BF
:101770000801207808B1A0698047D4E90A10D4E9AB
:101780000C23891A9841C3D3D4E90A01801B61EB69
:101790000701BDE8F081000008000020400400209F
:1017A000BC22000813B54FF6FF73012269460248B8
:1017B000FFF749FA00981CBD5408002010B501221B
:1017C00005490648FFF716FA0349002208780A700F
:1017D00000F07F0010BD0000000000205408002031
:1017E0000649A1F13800827951F82210044A914249
:1017F00001D180787047C08900F060BA40000020B5
:101800000511000802494889C881401C4881704779
:10181000080000207047000010B5FFF7E1FF0E49F7
:101820004882401C80B288824A7910F0FF0F02D0B3
:1018300022F0020201E042F002024A7102064A79F5
:1018400002D542F0800201E022F080024A71BDE838
:10185000104000F01FBA00000800002070B50F4CC7
:10186000608900F02BFA05466089401C80B200F0C8
:1018700025FA45EA0020411C00F47F45C9B20D431A
:1018800000F01CFA0646284600F018FA46EA002046
:10189000E0816089801C608170BD0000080000202C
:1018A00070B50A4D6889411C698100F007FAE97832
:1018B0000844C4B2204600F001FA0646641CE0B2B7
:1018C00000F0FCF946EA0020E88170BD0800002025
:1018D00070B50E4C6089411C618100F0EFF9411C2C
:1018E000C9B20D4600F0EAF90646284600F0E6F9CE
:1018F00046EA0020227900F47F411044E08100F4A0
:101900007F40884201D00120207270BD0800002075
:101910000C480246C178491C11F0FF01C170527990
:1019200002D022F0020201E042F0020209064271F6
:10193000D1B202D541F0800101E021F08001417176
:1019400070470000080000200C4802460179491C3D
:1019500011F0FF010171527902D022F0020201E080
:1019600042F0020209064271D1B202D541F0800173
:1019700001E021F080014171704700000800002063
:1019800010B5FFF749FF00F0A9FA0748C17900290F
:1019900009D0017A002906D0D0E90A12491E42F185
:1019A000FF32C0E90A1210BD080000200148C189B9
:1019B000418170470800002010B5044C6089401E2A
:1019C00080B200F043F9E089608110BD080000207A
:1019D00010B500F005F8BDE8104000F01FB8000099
:1019E00010B50D4C0120E071FFF7FAFE608210F097
:1019F000FF00A070617902D021F0020101E041F006
:101A0000020100066171C8B202D540F0800001E019
:101A100020F08000607110BD0800002010B50D4C52
:101A20000120E071FFF7DCFE608210F0FF00E07043
:101A3000617902D021F0020101E041F002010006CB
:101A40006171C8B202D540F0800001E020F0800052
:101A5000607110BD0800002010B50D4C0120E07130
:101A6000FFF7BEFE608210F0FF002071617902D0A6
:101A700021F0020101E041F0020100066171C8B2EB
:101A800002D540F0800001E020F08000607110BDC0
:101A90000800002010B5FFF7A3FE12490246488255
:101AA00040088882D2074A7902D042F0010201E060
:101AB00022F001024A7110F0FF0FD2B202D022F0E0
:101AC000020201E042F002024A7102064A7902D59E
:101AD00042F0800201E022F080024A71BDE810402D
:101AE00000F0D8B808000020FEF7EAFCFFF710F974
:101AF0000D480C490C2201604FF4E1314160002196
:101B00008160C160C0E904128161C161FFF70AF818
:101B100000F010F94FF47A7420460021FFF7ECFD35
:101B2000FAE70000001001405408002009488179BC
:101B30007C290BD006DC1C2908D03C2906D05C2966
:101B400006D103E0DC2901D0FC2901D10121C171BA
:101B5000704700000800002010B50F4C0120E07114
:101B6000FFF73EFE6082A1780143A182607911F007
:101B7000FF0F02D020F0020001E040F0020060718F
:101B80000806607902D540F0800001E020F0800076
:101B90006071A17010BD000008000020014880782D
:101BA00000F06CB8080000200248407940F01000B6
:101BB00000F064B80800002010B500F03BF80A49B6
:101BC00088704A7910B122F0020201E042F002026C
:101BD00000064A71D0B202D540F0800001E020F04A
:101BE0008000487110BD00000800002010B500F012
:101BF00021F8024940F02000487110BD0800002083
:101C000070B50B4C6078401CC0B200F5807000F0DD
:101C100055F805466078801CC0B200F5807000F071
:101C20004DF8617845EA0020891C617070BD0000A4
:101C30000800002004494878401CC0B2487000F5F4
:101C4000807000F03BB800000800002070B50A4C1E
:101C50000546010A607800F5807000F077FA607838
:101C6000E9B2401EC0B200F5807000F06FFA6078F3
:101C7000801E607070BD000008000020044B01460B
:101C80005A78501E587002F5807000F05FBA00005C
:101C9000080000200749A1F13802937951F8231078
:101CA000054B994201D190707047C1B2D08900F0C4
:101CB0004DBA00004000002005110008A0F5704159
:101CC00004390CD0B0F5404F15D3A0F5404189B28E
:101CD00042F61D12914204D20B48405C7047FFF758
:101CE0006DBDB1F57C5F06D308480844A0F580407F
:101CF00090F800017047B0F5804F02D20449085CAB
:101D00007047002070470000BC260008BC21000876
:101D10009408002010B5064C6089411C6181FFF7D2
:101D2000CDFF2082010602D540F47F40208210BD05
:101D30000800002010B54FF6FC70FFF7BFFF044607
:101D40004FF6FD70FFF7BAFF44EA002106484181D3
:101D500000218170C1700171FF214170417941F012
:101D60002001417110BD00000800002010B500F0F6
:101D700013F8FFF721FA0748C179002909D0017A41
:101D8000002906D0D0E90A12491E42F1FF32C0E90B
:101D90000A1210BD0800002010B5FFF721FD1349FD
:101DA00048824A79134660F35F0398B28882030A37
:101DB00002D042F0010201E022F001024A7110F06B
:101DC000FF0FD2B202D022F0020201E042F0020282
:101DD0004A7102064A7902D542F0800201E022F0FF
:101DE00080024A71BDE81040FFF754BF0800002090
:101DF00010B5FFF7F5FC1449024648824B794008BC
:101E000003F0010440EAC4108882D20702D043F0F4
:101E1000010201E023F001024A7110F0FF0FD2B27B
:101E200002D022F0020201E042F002024A710206F0
:101E30004A7902D542F0800201E022F080024A7124
:101E4000BDE81040FFF726BF0800002010B5FFF7DF
:101E5000CFFFFFF759F90748C179002909D0017A66
:101E6000002906D0D0E90A12491E42F1FF32C0E92A
:101E70000A1210BD0800002010B5FFF7DBFE034C6E
:101E80006071FFF7BDFE6082608110BD0800002018
:101E900010B5FFF7B5FE02494882401C488110BDCD
:101EA0000800002010B500F0C1F800F0C5F80A4C99
:101EB000A078E1780840FFF7EDFEE079002809D02E
:101EC000207A002806D0D4E90A01401E41F1FF31F2
:101ED000C4E90A0110BD00000800002070B52D4CB7
:101EE0000120E071FFF77CFC80F0FF026282A178A4
:101EF0006379881803F00105284480B2A082050A9E
:101F000002D043F0010301E023F00103637110F0FC
:101F1000FF0FDBB202D023F0020301E043F0020323
:101F2000637180EA0103424013401A06627902D5C8
:101F300042F0400201E022F0400262710206627942
:101F400002D542F0800201E022F080026271D2B23A
:101F500013071CD56639C9B222F00102627101F083
:101F60000F03A170092B01D9891DA170C9B201F01D
:101F7000F003902B04D96031A17042F0010161712E
:101F8000D4E90A12491C42F10002C4E90A12A07005
:101F900070BD0000080000200248417941F00101B5
:101FA00041717047080000200248417941F0080162
:101FB00041717047080000200248417941F0040156
:101FC0004171704708000020014601A0FEF7B0BF34
:101FD0002563000010B5FFF70FF9FFF7BDFD0748B7
:101FE000C179002909D0017A002906D0D0E90A1266
:101FF000491E42F1FF32C0E90A1210BD080000205C
:1020000010B5FFF747FDFFF755FB0748C1790029D9
:1020100009D0017A002906D0D0E90A12491E42F1FE
:10202000FF32C0E90A1210BD080000200148807884
:10203000FFF730BE080000200148C078FFF72ABE35
:102040000800002001480079FFF724BE08000020A6
:102050000A4802468178C170527911B122F0020219
:1020600001E042F0020209064271D1B202D541F00C
:10207000800101E021F080014171704708000020DB
:102080000A48024681780171527911B122F00202A8
:1020900001E042F0020209064271D1B202D541F0DC
:1020A000800101E021F080014171704708000020AB
:1020B0000A4802464178C170527911B122F00202F9
:1020C00001E042F0020209064271D1B202D541F0AC
:1020D000800101E021F0800141717047080000207B
:1020E0000A480246C1788170527911B122F0020289
:1020F00001E042F0020209064271D1B202D541F07C
:10210000800101E021F0800141717047080000204A
:102110000148C17841707047080000200A48024613
:1021200001798170527911B122F0020201E042F08E
:10213000020209064271D1B202D541F0800101E0EC
:1021400021F080014171704708000020B0F5804FF8
:1021500001D2054A11544FF20102904202D10846C1
:10216000FFF732BF704700009408002010B5044C00
:102170006089411C6181FFF7A1FDE08110BD000075
:102180000800002010B5054C6089411C6181FFF7F3
:1021900095FDE1780844C0B2E08110BD0800002040
:1021A00010B5054C6089411C6181FFF787FD2179DD
:1021B0000844C0B2E08110BD08000020000000000B
:1021C000000000000000000000000000000000000F
:1021D00000000000000000000000000000000000FF
:1021E00000000000000000000000000000000000EF
:1021F00000000000000000000000000000000000DF
:1022000000000000000000000000000000000000CE
:1022100000000000000000000000000000000000BE
:1022200000000000000000000000000000000000AE
:10223000000000000000000000000000D8A2FF9A8B
:10224000A01CB9BBFF99040288D0F7B9D8FFF006EB
:1022500020EDE0C8D0F520EAE090FB29DFC957F077
:1022600007C943D0D74C00C04C00008D01F060ADD1
:1022700004F0F00238601860B3FFAFFFBBFFBBFF94
:1022800048A5DF4A05DF85DF684048A5DC4A05DC54
:1022900085DC68400D0A36353032204568424153AE
:1022A0004943205B435D6F6C642F5B575D61726DCA
:1022B000203F00000000170280FF0D020700000011
:1022C00006000000020000000800000003000000FB
:1022D00003000000050000000500000003000000EE
:1022E00002000000020000000200000004000000E4
:1022F00004000000060000000600000002000000CC
:1023000005000000020000000800000004000000BA
:1023100004000000060000000600000002000000AB
:10232000040000000200000007000000040000009C
:102330000400000007000000070000000600000085
:10234000060000000200000008000000030000007A
:10235000030000000500000005000000040000006C
:102360000200000002000000020000000400000063
:10237000040000000600000006000000020000004B
:10238000050000000200000008000000040000003A
:10239000040000000600000006000000020000002B
:1023A000040000000200000007000000040000001C
:1023B0000400000007000000070000000600000005
:1023C00006000000020000000800000003000000FA
:1023D00003000000050000000500000003000000ED
:1023E00002000000020000000200000003000000E4
:1023F00004000000060000000600000002000000CB
:1024000005000000020000000800000004000000B9
:1024100004000000060000000600000002000000AA
:10242000040000000200000007000000040000009B
:102430000400000007000000070000000600000084
:102440000600000002000000080000000300000079
:10245000030000000500000005000000040000006B
:102460000200000002000000020000000500000061
:10247000040000000600000006000000020000004A
:102480000500000002000000080000000400000039
:10249000040000000600000006000000020000002A
:1024A000040000000200000007000000040000001B
:1024B0000400000007000000070000000200000008
:1024C00006000000020000000600000003000000FB
:1024D00003000000030000000300000002000000F1
:1024E00002000000020000000200000004000000E2
:1024F00004000000040000000400000002000000CE
:1025000006000000020000000600000004000000B9
:1025100004000000040000000400000002000000AD
:10252000050000000200000005000000050000009A
:10253000050000000500000005000000020000008A
:10254000060000000200000006000000030000007A
:102550000300000003000000030000000200000070
:102560000200000002000000020000000400000061
:10257000040000000400000004000000020000004D
:10258000050000000200000005000000040000003B
:10259000040000000400000004000000020000002D
:1025A000040000000200000004000000040000001D
:1025B000040000000400000004000000020000000D
:1025C00006000000020000000800000003000000F8
:1025D00003000000050000000500000002000000EC
:1025E00002000000020000000200000004000000E1
:1025F00004000000060000000600000002000000C9
:1026000005000000020000000800000004000000B7
:1026100004000000060000000600000002000000A8
:102620000400000002000000070000000400000099
:102630000400000007000000070000000200000086
:102640000600000002000000080000000300000077
:10265000030000000500000005000000020000006B
:102660000200000002000000020000000400000060
:102670000400000006000000060000000200000048
:102680000500000002000000080000000400000037
:102690000400000006000000060000000200000028
:1026A0000400000002000000070000000400000019
:1026B000040000000700000007000000A004B9F6B5
:1026C000E09900028810F7A2FF86889AA94C85A19C
:1026D000A21CBDFAE095BBCAD0F8A212BD17E195C5
:1026E00000CA10F8A90085DC85DF85B28567A90ED0
:1026F0008564A90385A0A26886652092C8A92AA03E
:10270000E120D3C82040C286C384C420C200D01FA9
:10271000A000E611D008E612A512C9C0F01DA95507
:102720009111D111D0150A9111D111F0E5D00C20E1
:10273000A6D9A5ACC998B0A220F7D4A511A412C0FF
:102740000190978585848685818482A000A2038478
:1027500079867A989179E6792092C82050C3A58528
:1027600038E579AAA586E57A2082DAA939A0E120A0
:10277000D3C8A95AA0C1850184026C0100200BC1F5
:10278000857F848038A5A6E5AAA8A5A7E5ABAAE819
:1027900098F0243849FF65A685A6B003C6A73898E7
:1027A00049FF65A485A4B008C6A59004B1A691A46C
:1027B00088D0F9B1A691A4C6A7C6A5CAD0F26085F3
:1027C00078BAE478903060C482902AD004C58190B1
:1027D0002448A2089848B5A3CA10FA20DFD1A20065
:1027E0006895A4E8E00830F868A868C4829006D02C
:1027F00005C581B00160A20C2092C8BDA9E6BCAAA3
:10280000E620D3C82089C3A9E6A0E720D3C8A488BE
:10281000C8F0032077DAA90085DF85DCA9F7A0E7F7
:1028200020D3C8204DC286C384C420C200F0F4A2C5
:10283000FF86889006207EC24CF3C42055C7207EB8
:10284000C2845D2024C39044A001B1AA8572A57BF7
:102850008571A5AB8574A5AA88F1AA18657B857BCF
:102860008573A57C69FF857CE5ABAA38A5AAE57BC5
:10287000A8B003E8C6741865719003C67218B171E8
:102880009173C8D0F9E672E674CAD0F2AD2102F0B5
:102890003FA585A48685818482A57B85A6A47C84AA
:1028A000A7655D9001C885A484A520C1C0A57FA4AB
:1028B00080857B847CA45D88B91D0291AA88C003B1
:1028C000D0F6A51291AA88A51191AA88A9FF91AA6C
:1028D0002065C3A679A57AA00186718572B171F0D1
:1028E00018A004C8B171D0FB38986571AAA00091F6
:1028F00071986572C8917190E04C67C120EBC82057
:10290000E8C8D00520EDC8CA2CA20020EAE090FB60
:10291000F0F9C907F010C90DF019E000D004C92181
:1029200090E9C908F0DEE047B00C9D2102E820EDF7
:10293000C8D0D84C89C8A907D0F4A0FF38A5C3E9EE
:1029400021AA8660BD2102F051C95FB04DC93CB0DB
:102950000EC930B045855CC922F061C92A903B247C
:10296000607037867884BAA0108473A0E38474A062
:1029700000D173F0059021C8D0F7980AAABD2EE3C4
:102980008573BD2FE38574A0FFA678C8B1733008A6
:10299000E8DD2102F0F5D02BA4BAE8C8992102C9DC
:1029A00000F032E93AF004C949D00285604957D0B5
:1029B00093855CBD2102F0E2C55CF0DEC89921027E
:1029C000E8D0F0A678B17308C82810F9B173D0BE6A
:1029D000BD210210C3C8C8992102C8C8C8C6C360B7
:1029E000A579A67AA00185AA86ABB1AAF01AA003A0
:1029F000B1AA88C512D004B1AAC511B00988B1AA7C
:102A0000AA88B1AA90DEF0011860D0FDA900A891B3
:102A100079C8917918A5796902857BA57A690085BD
:102A20007C18A57969FF85C3A57A69FF85C4A5854A
:102A3000A48685818482A57BA47C857D847E857F18
:102A400084802044C5A268866568AA688EFE018DD0
:102A5000FF01A2FD9AA900858C856160F0D060908D
:102A600006F004C9B7D0F42055C72024C320C20003
:102A7000F00CC9B7D09320BC002055C7D08BA5114E
:102A80000512D006A9FF85118512A001846020924D
:102A9000C8B1AAF03E2014C5C8B1AAAAC8B1AAC537
:102AA00012D004E411F002B02A84972082DAA9201F
:102AB000A497297F20EDC8C922D006A56049FF85CB
:102AC00060C8B1AAD00EA8B1AAAAC8B1AA86AA8520
:102AD000ABD0B76010DE246030DAA2E50A0A9002BB
:102AE000E81869119001E8857386748497A000B195
:102AF00073AAC8B173CAF0B820EDC8C8B17348C88A
:102B0000B173A0008574688573B173CAF0A220ED1B
:102B1000C8C8D0F5A980856120B4C76868A910200D
:102B200003C1209DC6189865C348A5C4690048A57F
:102B30008848A58748A9AD20F1CB20D0CA20CDCAAE
:102B4000A5B0097F25AD85ADA997A0C48571847214
:102B50004C84CBA9E0A0E1207DD820C200C9B2D02E
:102B60000620BC0020CDCA20E9D885B02079CBA5AD
:102B70009848A59748A981482014C5A5C3A4C4A610
:102B800088E8F004858B848CA000B1C3F007C93AB3
:102B9000F01D4C02CCA002B1C318F056C8B1C385D9
:102BA00087C8B1C385889865C385C39002E6C420F1
:102BB000BC0020FCC44CBCC4F0540AB0034CB4C7E5
:102BC000C956B0CEA8B908E248B907E2484CBC00E3
:102BD0006C0302C903B00118D067A5C44902F01004
:102BE0004902A4C3848B858CA587A4888589848A9F
:102BF00068689007A9DEA0E74C4FC14C5AC1D00FBE
:102C000038A579E901A47AB00188858F8490602085
:102C100055C720A0C6A588C512B00B983865C3A6B5
:102C2000C49007E8B004A579A67A2028C3B0034C65
:102C300072C6A5AAE901A4ABB0D090CD208CD486F1
:102C40000D60D0FDA48CD005A21E4C3CC1A99320E0
:102C500014DFA9932017DF84C4A58B85C3A589A49D
:102C60008A8587848860D0034C65C32072C3F02EA8
:102C7000A9052003C1A5C448A5C348A58848A587C0
:102C800048A99D4820C2004CBCC4A9052003C1A589
:102C9000C448A5C348A58848A58748A98D4820C22F
:102CA0000020EBC54CBCC42055C720A0C6A588C5D4
:102CB00012B00B983865C3A6C49007E8B004A57994
:102CC000A67A2028C39067A5AAE90185C3A5ABE928
:102CD0000085C460A2224C3CC1A8BABD0301C99DB5
:102CE000D0F2E8E89A98F020C93AF01CE9B3AAF0CB
:102CF00004CAD062CA869820BC0020E1CAA5ACF004
:102D000002A9FFBA4598D01ABD02018587BD03010B
:102D10008588BD040185C3BD050185C420C2004C62
:102D2000BCC4E8E8E8E8E89A4C8CC6A2042CA20EE1
:102D30004C3CC1D09E686868C98DD0EF68858768B3
:102D400085886885C36885C4209DC6981865C38535
:102D5000C39002E6C4604C02CCA23A2CA200A000B0
:102D6000845C8A455C855CB1C3F0EAC55CF0E6C86A
:102D7000C922D0F3F0EC20E1CA20C200C9B0F011A2
:102D8000C989D0D2A6C3A4C420BC00B0C986C3845C
:102D9000C4A5ACF01B20BC00B0034CEBC5C990D05F
:102DA000034CFEC420FCC4A000B1C3C9ACF09960C0
:102DB000A000A201C8B1C3F00FC98BD003E8D0F4C2
:102DC000C9ACD0F0CAD0EDC8981865C385C39002CD
:102DD000E6C420C20090C34CFCC420A0C64C8FC6E1
:102DE0004C02CCC9A9D0034C38DFC9AAD0034C3C53
:102DF000DF208CD448C98DF004C989D0E3C6AFD098
:102E000004684CFEC420BC002055C7C92CF0EE68F5
:102E100060A20086118612B0F7E019A8B0DDE92F94
:102E2000A8A5110A26120A2612651185118A6512B3
:102E300006112AAA98651185119001E820BC004C62
:102E400059C7A9E42CA9E04820AACDA65F301E8569
:102E5000978498207DD86848A0E120BED520A3D8CB
:102E600020C200C92CD0A820BC004C8CC74CDCCAA6
:102E700020AACD85978498A9C120F1CBA55F4820D1
:102E8000E1CA682A20D3CAD0034CA3D8A002B1AEAD
:102E9000C5829017D00788B1AEC581900EA4AFC48B
:102EA0007C9008D00DA5AEC57BB007A5AEA4AF4CF5
:102EB0000CC8A000B1AE2032D1A59EA49F85B884D5
:102EC000B92011D3A9ACA000859E849F2073D3A004
:102ED00000B19E9197C8B19E9197C8B19E9197609D
:102EE00020AACD859784982000DFA65F3007A82010
:102EF00066D04CA3D848A901B00168203AD1F005AA
:102F000068A00091AD2085D14CD0C720D6C820C282
:102F100000F03BC9ABF056C9AFF052C92CF038C92C
:102F20003BF06620E1CA245F30E12095DA2044D1ED
:102F3000A000A50FF00A38E50EF1AEB0032092C84C
:102F400020D6C8F0C9A9009D2102A221A002A90D86
:102F500020EDC8A90AD052A50EC51090052092C830
:102F6000D02738E564B0FC49FF6901D012482089B8
:102F7000D4C929D07B68C9ABD0068AE50E900AAACD
:102F80008AF00620E8C8CAD0FA20BC00D0856020AC
:102F900044D1203ED3A000AAF049B17120EDC8C8A9
:102FA000CAD0F760A9202CA93FC920901948A50FC5
:102FB000D00AA50EE564D00B850EF007C50ED00330
:102FC0002092C8E60E6820EDE0C90DD0148678A6E0
:102FD0000DF00AA90020EDC8CAD0FAA90D860EA6E8
:102FE0007829FF60A562100BA58DA48E8587848843
:102FF0004C02CCA912A0E820D3C8A58BA48C85C311
:1030000084C460C922D00B20BECBA93B20F1CB20C9
:10301000D6C8206AD02040C2A900CD2102D00A180B
:103020004C2CC5A68FA490A980856286918492209D
:10303000AACD85978498A5C3A4C485118412A691AE
:10304000A49286C384C420C200D0112462306520BB
:10305000EBC82040C286C384C420C200245F102471
:10306000855BC922F007A93A855BA92C18855CA568
:10307000C3A4C469009001C8204AD120CFD420D075
:10308000C74CCEC920A6D920A3D820C200F00AC9B7
:103090002CF0034C28C920BC00A5C3A4C48591848E
:1030A00092A511A41285C384C420C200F02C20FE76
:1030B000CB4C73C9209DC6C8AAD012A206C8B1C302
:1030C000F073C8B1C3858DC8B1C3C8858EB1C3C8FC
:1030D000AA208FC6E083F081D0DAA591A492A662DF
:1030E00010034C4EC5A000B191D00160A901A0E829
:1030F0004CD3C8BAE8E8E8E8BD0101C981D021A5F0
:1031000098D00ABD02018597BD03018598DD0301B2
:10311000D007A597DD0201F0078A186910AAD0D858
:1031200060D004A000F00320AACD859784982037B2
:10313000CAF004A200F0639A8A38E9F7857369FB44
:10314000A001207DD8BABD080185B0A597A498201C
:10315000BED520A3D8A0012019D9BADD0801F017E7
:10316000BD0D018587BD0E018588BD100185C3BDDC
:103170000F0185C44CBCC48A690FAA9A20C200C939
:103180002CD0F120BC00206BCA20E1CA18243824BE
:103190005F3003B00360B0FDA2184C3CC1A6C3D0A1
:1031A00002C6C4C6C3A90048A9022003C120CDCBD2
:1031B000A900859B20C20038E9C09017C903B0134D
:1031C000C9012A4901459BC59B9067859B20BC008E
:1031D0004CFBCAA69BD02CB079690A9075D0072405
:1031E0005F10034CD4D285710A6571A868D9E9E2F1
:1031F000B06520D0CA482062CB68A4991019AAF003
:1032000076D05D265F8A855F2AA6C3D002C6C4C673
:10321000C3A024859BD0D5D9E9E2B04490D7B9EBBF
:10322000E248B9EAE2482079CBA59B48B9E9E24CEB
:10323000EBCA4C02CC688571E671688572A5B0480E
:1032400020D9D8A5AF48A5AE48A5AD48A5AC486CD7
:103250007100A0FF68F020C964F00320D0CA8499EF
:10326000684A85636885B36885B46885B56885B63E
:103270006885B745B085B8A5AC60A5C3A4C469008E
:103280009001C82044D14CCFD420BC00B0034CA640
:10329000D9AA302FC924F0F6C925F0F2C92EF0EED4
:1032A000C922F0D6C928D04F20E9CAA929A000D147
:1032B000C3D00B4CBC00A928D0F3A92CD0EFA2029C
:1032C0004C3CC1C9B7F029C9B6F0BEC9B1D013A0F2
:1032D00021D01F20A6CEA5AF49FFA8A5AE49FF4C1F
:1032E00059D0C9AED0034CB4D0E9C3B0194C02CC0C
:1032F000A01E68684C3ACB20AACD85AE84AFA65FED
:1033000030034C7DD8600AA8B9A4E248B9A3E248CA
:10331000B95EE2F00548B95DE2486020ECCB4CD2E2
:10332000CA20ECCB4CD0CA465F4CBC0020E9CA2076
:10333000FECB20D2CA68AA68A8A5AF48A5AE489817
:10334000488A48208CD48A6020E9CA20D0CAA5AC1B
:10335000C998B0202050D9A202B5AD9511CA10F974
:1033600020C200A200C929F00A20DED420C200C970
:1033700029D001604C29CF20E2CC455BA8A5AE4501
:103380005C4C59D020E2CC055BA8A5AE055C4C593D
:10339000D020E2CC255BA8A5AE255C4C59D020A658
:1033A000CEA5AE855CA5AF855B20C3D520A6CEA5F6
:1033B000AF6020D3CAB013A5B7097F25B485B4A9DF
:1033C000B3A0002017D9AA4C3FCD465FC69B203E34
:1033D000D385AC86AD84AEA5B5A4B62042D386B560
:1033E00084B6AA38E5ACF008A9019004A6ACA9FF00
:1033F00085B0A0FFE8C8CAD007A6B0300F18900C5F
:10340000B1B5D1ADF0EFA2FFB002A201E88A2A2542
:1034100063F002A9FF4CFAD820FECBAA20AFCD2042
:10342000C200D0F460209FCDA5AEA678F022E010B7
:10343000B02306AF2ACAD0FAA4AF4C59D0209FCDF2
:10344000A5AEA678F00AE010B00B4A66AFCAD0FA73
:10345000A4AF4C59D0A900A84C59D0208FD486785D
:1034600020C3D54CA6CEA20020C200865E8593293B
:103470007F201ECEB0034C02CCA200865F20BC0091
:103480009005201ECE900BAA20BC0090FB201ECEE3
:10349000B0F6C924D00BA9FF855F8A0980AA20BC99
:1034A0000086940561C928D0034CB8CEA900856177
:1034B000A57BA67CA00086AB85AAE47ED004C57D52
:1034C000F02CA593D1AAD008A594C8D1AAF06988F8
:1034D00018A5AA690690E1E8D0DCC961B00AC94123
:1034E0009005E95B38E9A560E97B38E985606848C3
:1034F000C93DD005A9E1A0E160A57DA47E85AA848F
:10350000ABA57FA48085A684A71869069001C8850D
:10351000A484A520C1C0A5A4A4A5C8857D847EA03F
:1035200000A59391AAC8A59491AAA900C891AAC878
:1035300091AAC891AAC891AAA5AA186902A4AB9099
:1035400001C88595849660A55D0A690565AAA4AB46
:103550009001C885A484A56020BC0020CDCAA5B078
:10356000300DA5ACC9909009A9E8A0E12017D9D0E9
:10357000744C50D9A55E48A55F48A0009848A59412
:1035800048A59348209CCE68859368859468A8BA1E
:10359000BD020148BD010148A5AE9D0201A5AF9D38
:1035A0000101C820C200C92CF0D2845D20EFCB6895
:1035B000855F68855EA67DA57E86AA85ABC580D021
:1035C00004E47FF039A000B1AAC8C593D006A59441
:1035D000D1AAF016C8B1AA1865AAAAC8B1AA65AB43
:1035E00090D7A2102CA2084C3CC1A212A55ED0F725
:1035F000208BCEA55DA004D1AAD0E74CC5CF208BEF
:10360000CE200BC1A00084BBA59391AAC8A594911C
:10361000AAA55DA00484BA91AA18A20BA900245EF1
:103620005007686901AA686900C891AAC88A91AA66
:103630002014D086BA85BBA471C65DD0DD65A5B067
:103640005D85A5A88A65A49003C8F052200BC185AA
:103650007F8480A900E6BBA4BAF0058891A4D0FBC2
:10366000C6A5C6BBD0F5E6A538A002A57FE5AA9100
:10367000AAC8A580E5AB91AAA55ED053C8B1AA851A
:103680005DA90085BA85BBC868AA85AE6885AFD13B
:10369000AA900ED006C88AD1AA90074C26CF4C3AE1
:1036A000C1C8A5BB05BAF00A2014D08A65AEAA9895
:1036B000A47165AF86BAC65DD0CB06BA2A06BA2A0F
:1036C000A8A5BA65A485959865A58596A8A59560D1
:1036D0008471B1AA857688B1AA8577A91085A8A238
:1036E00000A0008A0AAA982AA8B0B306BA26BB90FE
:1036F0000B188A6576AA986577A8B0A2C6A8D0E309
:1037000060A55F1003203ED320DFD138A581E57F7F
:10371000A8A582E580465F85AD84AEA2904C02D913
:10372000A40EA900F0EFA688E8D0A4A2164C3CC1D4
:1037300020A5D0859C849D206AD020FACBA98085C5
:103740006120AACD20D0CA20EFCBA9C120F1CBA502
:103750009648A59548A5C448A5C348208CC64C14D6
:10376000D1A9AE20F1CB0980856120B1CD4CD0CA62
:1037700020A5D048984820FACB20E1CA20EFCB20E2
:10378000D0CA68859D68859CA220A003B19CF09D4D
:10379000859688B19C8595AAC8B195488810FAA4E9
:1037A0009620A7D8A5C448A5C348B19C85C3C8B175
:1037B0009C85C4A59648A5954820CDCA68859C6877
:1037C000859D20C200F0034C02CC6885C36885C487
:1037D000A00068919CC868919CC868919CC8689139
:1037E0009C6020D0CA2095DAA9F0A000F012A6AE05
:1037F000A4AF869E849F20ADD186AD84AE85AC609B
:10380000A222865B865C85B884B985AD84AEA0FFB4
:10381000C8B1B8F00CC55BF004C55CD0F3C922F0A8
:10382000011884AC9865B885BAA6B99001E886BB42
:10383000A5B9C903B00B982032D1A6B8A4B9201FEE
:10384000D3A665E071D005A21C4C3CC1A5AC950087
:10385000A5AD9501A5AE9502A00086AE84AF888483
:103860005F8666E8E8E886656046604849FF386537
:1038700081A482B00188C4809011D004C57F900BD0
:103880008581848285838484AA6860A20CA56030C7
:10389000B820DFD1A980856068D0D0A685A58686AE
:1038A000818582A000849DA57FA68085AA86ABA97C
:1038B0006885718472C565F0052063D2F0F706A0B3
:1038C000A57BA67C85718672E47ED004C57DF0055B
:1038D000205DD2F0F385A486A5A90485A0A5A4A6A1
:1038E000A5E480D004C57FF07585718672A002B111
:1038F0007165A485A4C8B17165A585A5A001B17144
:1039000010DBA004B1710A69052095D2E4A5D004AA
:10391000C5A4F0CD2063D2F0F3C8B1711030C8B1A6
:1039200071F02BC8B171AAC8B171C5829006D01EC2
:10393000E481B01AC5AB9017D004E4AA901186AA0E
:1039400085ABA571A672859C869D888884A218A5E2
:10395000A0657185719002E672A672A00060C6A093
:10396000A69DF0F5A4A218B19C65AA85A6A5AB6991
:103970000085A7A581A68285A486A520C8C0A4A28B
:10398000C8A5A4919CAAE6A5A5A5C8919C4CE3D185
:10399000A5AF48A5AE4820CDCB20D2CA6885B8686F
:1039A00085B9A000B1B81871AE9005A21A4C3CC1FF
:1039B0002032D12011D3A59EA49F2042D32023D30F
:1039C000A5B8A4B92042D32085D14CF8CAA000B133
:1039D000B848C8B1B8AAC8B1B8A86886718472AA34
:1039E000F014A000B1719183C8CAD0F8981865830B
:1039F00085839002E6846020D2CAA5AEA4AF85710B
:103A000084722073D308A000B17148C8B171AAC8EC
:103A1000B171A86828D013C482D00FE481D00B48BC
:103A200018658185819002E682688671847260C41F
:103A300067D00CC566D0088565E9038566A000607F
:103A4000208FD48A48A901203AD168A00091AD4CBA
:103A500085D14820F7D3D19E98F0094820F7D31894
:103A6000F19E49FF9004B19EAA98488A48203AD115
:103A7000A59EA49F2042D368A8681865718571909F
:103A800002E672982023D34C85D148A9FF85AF2048
:103A9000C200C929F00620FECB208CD420F7D3CA5F
:103AA0008A4818A200F19EB0C249FFC5AF90BDA5DB
:103AB000AFB0B920EFCB6885A26885A368AA6885F6
:103AC0009E68859FA0008AF079E6A26CA200203B48
:103AD000D385ACA8F038203AD186AD84AEA888B1A1
:103AE000712022CE90020920918398D0F1F01F20FE
:103AF0003BD385ACA8F017203AD186AD84AEA88818
:103B0000B171201ECE900229DF918398D0F14C85AF
:103B1000D120BC0020AACD20EFCB20D2CAA002B178
:103B200095AA88B195A88A4C59D02074D44C66D0F7
:103B3000203BD3A8602074D4F008A000B171A84C39
:103B400066D04C29CF20BC0020CDCA20A2CEA4AE86
:103B5000D0F0A6AF4CC2002074D4D0034C50D6A6EF
:103B6000C3A4C486BA84BBA67186C3186571857365
:103B7000A57285C469008574A000B17348989173DB
:103B800020C20020A6D968A0009173A6BAA4BB8663
:103B9000C384C46020CDCA20F1D420FECBA5124836
:103BA000A51148208CD468851168851260A5ACC920
:103BB00098B08F2050D9A5AEA4AF84118512602093
:103BC000F1D4A200A111A84C66D020D8D48AA200BA
:103BD00081116020F1D4A200A111A8E611D002E663
:103BE00012A1114C59D020CDCA20F1D484978598C8
:103BF00020FECB20CDCA20F1D498A2008197E69771
:103C0000D002E698A51281974CC20020AACD8597D4
:103C10008498A55F4820FECB20AACD68455F101090
:103C2000A003B197AAB19591978A91958810F360F6
:103C30004CDCCA20CDCA20F1D4A9D548A985486C4E
:103C400011004CC20020D8D48697A20020C200F0F8
:103C50000320DED48698B11145982597F0F86020AE
:103C60008BD7A5B049FF85B045B785B8A5AC4CC189
:103C7000D520DAD6904DA9E9A0E1208BD7D010A5A8
:103C8000B785B0A204B5B295ABCAD0F986B960A623
:103C9000B986A3A2B3A5B3A8F0C438E5ACF02490CC
:103CA0001284ACA4B784B049FF6900A00084A3A229
:103CB000ACD004A00084B9C9F930B6A8A5B95601A2
:103CC00020F1D624B8104CA0ACE0B3F002A0B33879
:103CD00049FF65A385B9B90300F50385AFB90200B3
:103CE000F50285AEB90100F50185ADB0032096D689
:103CF000A0009818A6ADD03EA6AE86ADA6AF86AE03
:103D0000A6B986AF84B96908C918D0E8A90085ACFE
:103D100085B06065A385B9A5AF65B685AFA5AE656D
:103D2000B585AEA5AD65B485ADB01A60690106B9BB
:103D300026AF26AE26AD10F438E5ACB0CF49FF690A
:103D40000185AC900CE6ACF03666AD66AE66AF664B
:103D5000B960A5B049FF85B0A5AD49FF85ADA5AE59
:103D600049FF85AEA5AF49FF85AFA5B949FF85B924
:103D7000E6B9D00AE6AFD006E6AED002E6AD60A264
:103D80000A4C3CC1A274B40384B9B4029403B401D4
:103D90009402A4B29401690830ECF0EAE908A8A5FD
:103DA000B9B01216019002F601760176017602761C
:103DB000036AC8D0EE186020E9D8F00210034C293D
:103DC000CFA5ACE97F48A98085ACA969A0E120BE58
:103DD000D5A96DA0E12001D8A9E0A0E120A3D5A933
:103DE0005CA0E12051DCA971A0E120BED56820458E
:103DF000DAA975A0E1208BD7F04C20B1D7A90085B6
:103E00007585768577A5B92060D7A5AF2060D7A541
:103E1000AE2060D7A5AD2065D74C6ED8D0034CC876
:103E2000D64A0980A8901318A57765B68577A57638
:103E300065B58576A57565B48575667566766677AC
:103E400066B9984AD0DE6085718472A003B171852D
:103E5000B688B17185B588B17185B745B085B8A50B
:103E6000B7098085B488B17185B3A5AC60A5B3F0FE
:103E70001D1865AC90043031182C1012698085AC87
:103E8000D0034C54D6A5B885B060A5B0101B6868A7
:103E90004C50D620CAD8AAF0F0186902B00BA20084
:103EA00086B820DBD5E6ACD0E04CC3D620CAD8A972
:103EB000F1A0E1A20086B8207DD84C04D8208BD791
:103EC000F06320D9D8A90038E5AC85AC20B1D7E69D
:103ED000ACF0D6A2FFA901A4B4C4ADD00AA4B5C465
:103EE000AED004A4B6C4AF082A900EA001E8E00248
:103EF0003004D028A040957598289014A8A5B6E560
:103F0000AF85B6A5B5E5AE85B5A5B4E5AD85B498E4
:103F100006B626B526B4B0CF30BD10CB4A6A6A8546
:103F2000B9284C6ED8A2144C3CC1A57585ADA576B8
:103F300085AEA57785AF4C34D685718472A003B168
:103F40007185AF88B17185AE88B17185B009808502
:103F5000AD88B17185AC84B960A2A4A000F004A6BC
:103F600097A49820D9D886718472A003A5AF9171C7
:103F700088A5AE917188A5B0097F25AD917188A5FE
:103F8000AC917184B96020D9D8A205B5AB95B2CAFD
:103F9000D0F986B960A5ACF0FB06B990F720B8D689
:103FA000D0F24C89D6A5ACF009A5B02AA9FFB00281
:103FB000A9016020E9D885ADA90085AEA288A5AD8C
:103FC00049FF2AA90085AF86AC85B985B04C2FD6AC
:103FD00046B06085738474A000B173C8AAF0C6B1FE
:103FE0007345B030C4E4ACD01AB1730980C5ADD00C
:103FF00012C8B173C5AED00BC8A97FC5B9B173E5FE
:10400000AFF028A5B0900249FF4CEFD8A5ACF04A1C
:1040100038E99824B01009AAA9FF85B2209CD68A55
:10402000A2ACC9F9100620DAD684B260A8A5B029DE
:104030008046AD05AD85AD20F1D684B260A5ACC992
:1040400098B01E2050D984B9A5B084B049802AA95F
:104050009885ACA5AF855B4C2FD685AD85AE85AF79
:10406000A860A000845FA20994A8CA10FB907FC931
:104070002DD00486B1F004C92BD00520BC00906E71
:10408000C924D0034C6EDEC925D0084C9CDE20BC70
:1040900000905BC92EF02EC945D03020BC0090178F
:1040A000C9B7F00EC92DF00AC9B6F008C92BF00443
:1040B000D00766AB20BC00905B24AB100EA9003883
:1040C000E5A94C11DA66AA24AA50C3A5A938E5A827
:1040D00085A9F012100920F0D7E6A9D0F9F0072041
:1040E000D7D7C6A9D0F9A5B13001604CF4DB48247C
:1040F000AA1002E6A820D7D768290F2045DA4CD2AB
:10410000D94820CAD86820FAD8A5B745B085B8A63E
:10411000AC4CC1D5A5A9C90A9009A96424AB300E3D
:104120004CC3D60A0A65A90AA00071C3E92F85A964
:104130004CF8D9A9EDA0E720D3C8A588A68785ADFE
:1041400086AEA290382007D9A0009820A2DA4CD3DE
:10415000C8A001A92024B01002A92D99EF0085B0B4
:1041600084BAC8A6ACD005A9304CAEDBA900E0816A
:10417000B009A981A0E12039D7A9FA85A8A97DA015
:10418000E12017D9F01E1012A979A0E12017D9F06B
:1041900002100E20D7D7C6A8D0EE20F0D7E6A8D0C0
:1041A000DC20BAD52050D9A201A5A818690730098A
:1041B000C908B00669FFAAA90238E90285A986A83C
:1041C0008AF0021013A4BAA92EC899EF008AF0064B
:1041D000A930C899EF0084BAA000A280A5AF1879D1
:1041E000F7E185AFA5AE79F6E185AEA5AD79F5E14C
:1041F00085ADE8B00410E5300230E18A900449FF53
:10420000690A692FC8C8C88495A4BAC8AA297F9921
:10421000EF00C6A8D006A92EC899EF0084BAA495CD
:104220008A49FF2980AAC012D0B2A4BAB9EF008887
:10423000C930F0F8C92EF001C8A92BA6A9F02E109C
:1042400008A90038E5A9AAA92D99F100A94599F076
:10425000008AA22F38E8E90AB0FB693A99F3008A8C
:1042600099F200A90099F400F00899EF00A90099CB
:10427000F000A9F0A00060F042A5B3D0034C52D6E4
:10428000A29CA00020A7D8A5B7100F2081D9A99C77
:10429000A0002017D9D00398A45B20C5D59848204A
:1042A000FBD6A99CA0002039D720FFDB684A900AE2
:1042B000A5ACF006A5B049FF85B060A985A0E120B6
:1042C00039D7A5B96950900320E1D885A320CDD86E
:1042D000A5ACC988900320CED72081D9A55B1869E9
:1042E00081F0F338E90148A204B5B3B4AC95AC94BD
:1042F000B3CA10F5A5A385B920A6D520F4DBA989FA
:10430000A0E12067DCA90085B8684CB3D785BA84E2
:10431000BB209DD8A9A42039D7206BDCA9A4A0007C
:104320004C39D785BA84BBA2A8209FD8B1BA85B131
:10433000A4BAC898D002E6BB85BAA4BB2039D7A5D9
:10434000BAA4BB1869049001C885BA84BB20BED545
:10435000A9A8A000C6B1D0E460A5ACF007A2D8A07F
:104360000020A7D8A2AFA01306D926DA26DB26D8CC
:1043700090058A45D985D988D0EEA202B5D995ADE8
:10438000CA10F9A98085AC0A85B04C34D6A9A6A07C
:10439000E120BED520CAD8A9BBA0E1A6B720F9D795
:1043A00020CAD82081D9A90085B820A6D5A9EDA01A
:1043B000E120A3D5A5B048100D20BAD5A5B030098D
:1043C000A56349FF856320F4DBA9EDA0E120BED5FC
:1043D00068100320F4DBA9AAA0E14C51DC209DD891
:1043E000A900856320D8DCA29CA00020A7D8A9A49E
:1043F000A000207DD8A90085B0A5632049DDA99C37
:10440000A0004C01D8484C0ADD200A004CEFCBA597
:10441000B048100320F4DBA5AC48C9819007A9E09F
:10442000A0E12001D8A9BFA0E12051DC68C981909A
:1044300007A9A6A0E120A3D56810164CF4DB20D86C
:10444000D4E008B020A900382ACA10FCE801118184
:10445000116020D8D4E008B00CA9FF2ACA10FCE8EB
:1044600021118111604C29CF20BC0020D8D4E00854
:10447000B0F320C200C929F0034C02CC20BC00A933
:1044800000382ACA10FCE82111F002A9FF4CFAD822
:10449000E019B0488678A918203AD1A017A218468A
:1044A00011661266138A2A91AD8810F3A578F00A76
:1044B000AA3849FF6918F01CD00FA8B1ADC930D097
:1044C00007CAF003C810F4E8981865AD85ADA900D7
:1044D00065AE85AE86AC20BC004C85D14C29CFE0C2
:1044E00007B0F98678A906203AD1A005F8A51320CF
:1044F00051DEA5122051DEA5112051DED8A206A55D
:1045000078F0B7AA3849FF6906F0C9D0BCAA290FCC
:10451000205CDE8A4A4A4A4AC90A693091AD8860FD
:1045200085ACA90085B88A2045DA20BC00900A092C
:1045300020E961C906B02A690A290FAAA5ACF0E4EE
:10454000690490DC4CC3D6AAA5ACF006E6ACF0F446
:10455000A90085B88A2045DA20BC004930C90290FC
:10456000E64C2ADAAD0002D01820EAE0900B8D016B
:1045700002A2208E02024C17C5AE0202F003CE0248
:1045800002A2DC20D0DEA2DF20D0DE60B50010FB6E
:104590000A2940F0F695008AA86868A9052003C199
:1045A000A5C448A5C348A58848A58748A98D48B98A
:1045B000010085C3B9020085C44CBCC420EAE0B048
:1045C00009AD0202F009AD010238A2008E020260BC
:1045D000A2DF2CA2DCC993F011C9B5F00749A2F003
:1045E0000E4C02CCA97F35001005B5000A150095C8
:1045F000004CBC0058A2DF2CA2DC867820BC002036
:1046000055C7A579A67A2028C3B0034C72C6A678F0
:10461000A5AAE9019501A5ABE9009502A9C09500FD
:1046200060D0FDA5DF0A05DF85DF4C79C6D0F1A596
:10463000DC0A05DC85DC4C79C620E9CA4CD0CA20EE
:10464000B1DF10FBA5B4098085B420C3D5F0F020FC
:10465000B1DF30FBF0F9A5B4098085B420C3D5F0F3
:10466000EEC929D00568684CBC004C02CC20C200C1
:10467000C92CD0ED20D9D8A5B0097F25AD48A5AE6D
:1046800048A5AF48A5AC4820BC0020CDCA6885B37A
:104690006885B66885B56885B485B7A9B3A0004CB0
:1046A00017D9C92CF01B208CD48AF00AE010904551
:1046B000E464B0028664860F20C200F01AC92CD0D0
:1046C000A92089D48A302EE001902AA50FF006E4B3
:1046D0000FF002B0208664A50FF006C564B0038514
:1046E0006438E564B0FC65641865648510A50F380E
:1046F000E5108510604C29CFA5B030F9A5ACF0F4D9
:1047000020CAD8A900857785768575857885AF8597
:10471000AE85ADA218A5B34AB00E06B626B526B42E
:10472000267726762675267806B626B526B4267709
:1047300026762675267806AF26AE26ADA5AF2A8545
:104740005BA5AE2A855CA5AD2A855DA9002A855E9C
:10475000A577E55B855BA576E55C855CA575E55D84
:10476000A8A578E55E900E85788475A55C8576A50C
:104770005B8577E6AFCAD0A238A5B3E9806A690045
:1047800085AC4C34D620BC0020AACD20EFCBA4951C
:10479000A5964C59D0A9BBA0E1207DD8C6AC60A994
:1047A000BBA0E14C7DD86C05026C07026C09026C61
:1047B0000B02000000A8DEE6C3D002E6C4ADFFFF96
:1047C000C9ACF00EC93AB00AC920F0EB38E930386C
:1047D000E9D0604C00C0000000000000004C29CF70
:1047E000000000F200030D0A4D656D6F72792073B1
:1047F000697A652000204279746573206672656568
:104800000D0A0A456E68616E636564204241534932
:104810004320322E32320A000280195662807622FC
:10482000F38238AA40803504F3813504F380800098
:10483000008031721891434FF8947423F7947424D4
:10484000008138AA3B067463908C77230CAB7A1EE8
:1048500094007C6342807E75FED0803172158100A9
:10486000000081490FDB04861ED7FB8799266587E8
:1048700023345886A55DE183490FDB08783AC537B4
:104880007B83A25C7C2EDD4D7D99B01E7D59ED248D
:104890007E9172007E4CB9737FAAAA5381000000FA
:1048A0008180000090800000007F000000842000D4
:1048B00000FE7960002710FFFC18000064FFFFF67F
:1048C0000000011AC557C464CA8BC646C95ECD66CE
:1048D000C9B3C785C7EAC5A9C5B9C641C5CDC564B1
:1048E000DF70DF76C61DC718C526C77FC588C78895
:1048F000D5EFE0F2E073D00DD529D576D5B3C51C40
:10490000C654C885C5A2C39FC34DC3E5DF23C84EA7
:10491000D581DD95DD13DF16DF64CC64CC64CCE893
:10492000CAEBCBEBCB64CC64CC64CC64CC64CC64FD
:10493000CC64CC64CC64CC64CC00005ECC64CC5E33
:10494000CC5ECC5ECC5ECC64CC8BCC8BCC00007CC3
:10495000DF7CDF6ACC6ACC00006FCC6FCC6FCCF60A
:10496000D880D913D94CDD44D063D03BE09CDCFA2D
:10497000D6FEDBD0DCD7DC20DD52DD02D516D554E7
:10498000D46DD425D19AD478D432D411D483D322FF
:10499000DED3DDABDD82DF92DFD8E0E2E0C8E09578
:1049A000D39ED3CDD379C0D579A5D57B3BD77B0317
:1049B000D87FBADB50D4CC46BACC46C7CC5680CDD3
:1049C0005668CD7DF3DB5A16CC64F5CC2A2B2D2FFF
:1049D0003C3D3E3F4142434445464748494C4D4E8D
:1049E0004F505253545556575E0068E36AE36CE3E8
:1049F0006EE370E374E376E37AE37CE38CE3A5E3B0
:104A0000BCE3D5E3E4E3EEE3FBE301E413E438E4E1
:104A100046E458E460E475E4A4E4CFE4E3E4F4E4B9
:104A200000E50FE5B800B600B700B9003CBFC20012
:104A3000C1003EBEC0009F00425328C54E44BB5338
:104A40004328D7544E28D000494E2428DC495443EB
:104A50004C52A84954534554A7495454535428DD43
:104A600000414C4C9C48522428DA4C454152A24FFC
:104A70004E54A04F5328CD004154418345438845AF
:104A8000454B28D2454699494D854F4B459B4F9DF7
:104A9000004C5345AC4E44804F52BC585028CC007B
:104AA0004EAE4F5281524528C7004554A54F53552D
:104AB000428D4F544F890045582428DB00468B4EC9
:104AC00043954E505554844E5428C45251A9004326
:104AD0004153452428D94546542428E3454E28D43B
:104AE000455487495354A14F4144974F4728CB4FD2
:104AF0004F509E00415828DE49442428E5494E285D
:104B0000DF004557A3455854824D49AA4F54B1552B
:104B10004C4C94004646B54E9352BD0045454B283B
:104B2000D149E04F4B459A4F5328C852494E549FA4
:104B30000045414486454D914553544F52458C455F
:104B4000544952518E45544E4D498F455455524EFD
:104B500090494748542428E44E4428CA554E8A00B8
:104B600041444428D341564598474E28C3494E28CE
:104B7000CE504328AF515228C9544550B2544F50DB
:104B80009254522428D5574150A600414228AB41A7
:104B90004E28CF48454EB04FAD574F5049E10043E6
:104BA0004153452428D84E54494CB3535228C6008B
:104BB000414C28D6415250545228E2004149549663
:104BC00048494C45B449445448A400BA000345D967
:104BD000E30346E6E3044E49E40444BCE305490626
:104BE000E40344CBE3045275E4034C24E40344C0DF
:104BF000E30447F6E30352A0E4024901E407527CD0
:104C0000E40547F1E3065283E4065289E406528F35
:104C1000E4035279E40453C1E4024F5BE4044E53CD
:104C2000E4034903E4045700E5044C2BE40453A9CE
:104C3000E40344C8E3045067E40444CEE30443A51A
:104C4000E30244D2E3044C33E405506FE40443B37D
:104C5000E3044C27E40543AEE3034E46E40557095D
:104C6000E50347EEE30453CAE4064297E3064291A4
:104C7000E303490FE4034E4DE40454CFE40445D567
:104C8000E30254DBE40246E4E30453B5E40454D7FE
:104C9000E4034E50E40453BDE40555EAE40557042B
:104CA000E5034F58E4012B0000012D0000012A000C
:104CB00000012F0000015E0000034180E30345DC9A
:104CC000E3024F5DE4023E76E3023C70E3013E0006
:104CD00000013D0000013C00000453ADE404490B19
:104CE000E404417CE30455EFE40446E9E304506B3B
:104CF000E40453B9E404529CE4044C2FE40445DF7B
:104D0000E30443B7E30453B1E40454D3E404418718
:104D1000E3055060E40544C3E30553A4E4044C20D8
:104D2000E40553C5E40456F4E4044183E30755E382
:104D3000E4074C13E40543A9E30548FBE305428C73
:104D4000E307429DE3044D38E4044D41E40250651D
:104D5000E40554DDE40756F8E4064C1AE4075295DE
:104D6000E4054D3CE4CDE6DEE6E5E6FAE606E714CA
:104D7000E71DE72BE73FE74CE75DE76CE77BE7895B
:104D8000E799E7ACE7BBE7CEE74E45585420776993
:104D900074686F757420464F520053796E74617851
:104DA0000052455455524E20776974686F757420CF
:104DB000474F535542004F7574206F66204441544D
:104DC000410046756E6374696F6E2063616C6C00A0
:104DD0004F766572666C6F77004F7574206F662032
:104DE0006D656D6F727900556E646566696E656498
:104DF0002073746174656D656E74004172726179BF
:104E000020626F756E647300446F75626C65206418
:104E1000696D656E73696F6E0044697669646520BB
:104E20006279207A65726F00496C6C6567616C20ED
:104E30006469726563740054797065206D69736D7F
:104E40006174636800537472696E6720746F6F20B9
:104E50006C6F6E6700537472696E6720746F6F2099
:104E6000636F6D706C65780043616E277420636FAB
:104E70006E74696E756500556E646566696E65640D
:104E80002066756E6374696F6E004C4F4F502077CB
:104E90006974686F757420444F000D0A4272656131
:104EA0006B00204572726F720020696E206C696E13
:104EB0006520000D0A52656164790D0A002045786D
:104EC0007472612069676E6F7265640D0A0020520A
:104ED00065646F2066726F6D2073746172740D0A61
:104EE00000000000000000000000000000000000C2
:104EF00000000000000000000000000000000000B2
:104F000000000000000000000000000000000000A1
:104F10000000000000000000000000000000000091
:104F20000000000000000000000000000000000081
:104F30000000000000000000000000000000000071
:104F40000000000000000000000000000000000061
:104F50000000000000000000000000000000000051
:104F60000000000000000000000000000000000041
:104F70000000000000000000000000000000000031
:104F80000000000000000000000000000000000021
:104F90000000000000000000000000000000000011
:104FA0000000000000000000000000000000000001
:104FB00000000000000000000000000000000000F1
:104FC00000000000000000000000000000000000E1
:104FD00000000000000000000000000000000000D1
:104FE0000001020304060708090000000001020393
:104FF00004000000145000080000002054080000C5
:10500000B4020008C85100085408002044440000BD
:10501000800F000801401315181B08A1046908CB74
:105020006D210429182A05044A1108CB65100413C0
:10503000151D5B08D14029081A8534A90429182AAE
:10504000C9285908DA8D042944097A80697809A6A3
:1050500080DA5D84093E8029542978690809168020
:105060006908A97C091A805AA104091680290C290B
:105070000409D68069040916806904097E8013E951
:10508000131408591B1B082D044BD51F0829104B5E
:10509000F911109AA910291CE9200A1DAD400B1C1A
:1050A000A114201BB91904595C1A6DCC1A0550299A
:1050B000101A990C29101AED1869102924E9205AA0
:1050C000351069402908A9202A9964091920137903
:1050D0001E4C08B516184B01200829104B951A10C4
:1050E0009A9D10291C1AADB0A9201A29E0091A406E
:1050F0000A1DC1201A91805A09A01A4D0C290829AD
:10510000101AF19C29109AB9106980A9201A6560BB
:10511000091B400A1C1F2029105A2D981AA5102A75
:10512000450C19041A390429105A7DBC5AE124E9A6
:10513000208B5112400912204B1D21102A110859B1
:1051400024A9301B591A5C19D41A1D081AD108E970
:10515000101A812C29105A5134E9201A8D802910F7
:10516000291C0912404BD114101AB1400912201BFE
:10517000851510192429401AD50C69101A01F8292F
:10518000101A492429101A45102924E920CB71133B
:10519000402908A9202AB1800919201A35044BDDBD
:1051A0001E181A816C69104B1918101A1104692005
:1051B0002908E920CBC91240692869200B1CA91FC6
:0851C00020320182105324F497
:040000050800019559
:00000001FF
