:020000040800F2
:10000000900C0020A9010008B30C0008AF0C0008F8
:10001000B10C00080B030008D90E00080000000016
:10002000000000000000000000000000B70C000805
:100030000D03000800000000B50C0008B90C000812
:10004000C3010008C3010008C3010008C301000880
:10005000C3010008C3010008C3010008C301000870
:10006000C3010008C3010008C3010008C301000860
:10007000C3010008C3010008C3010008C301000850
:10008000C3010008C3010008C3010008000000000C
:10009000000000000000000000000000C301000894
:1000A000C3010008C3010008C3010008C301000820
:1000B000C3010008C3010008C3010008C301000810
:1000C000C3010008C3010008C3010008C301000800
:1000D000C3010008C3010008C301000800000000BC
:1000E000C3010008C3010008C301000800000000AC
:1000F000000000000000000000000000C301000834
:1001000000000000C3010008C3010008C30100088B
:1001100000000000000000000000000000000000DF
:10012000C3010008C3010008C3010008C30100089F
:10013000C3010008000000000000000000000000F3
:10014000000000000000000000000000C3010008E3
:10015000C3010008C3010008C3010008C30100086F
:10016000C3010008C30100080000000000000000F7
:10017000000000000000000000000000000000007F
:1001800000000000C30100080000000000000000A3
:10019000C3010008DFF80CD000F07AF800480047EF
:1001A000B11B0008900C0020064880470648004715
:1001B000FEE7FEE7FEE7FEE7FEE7FEE7FEE7FEE717
:1001C000FEE7FEE7310D0008950100082DE9F05F1C
:1001D0000546002092469B468846064681464024B6
:1001E0001BE0284641464746224600F041F8534668
:1001F0005A46C01A914110D311461846224600F0C3
:1002000028F82D1A67EB01084F46224601200021ED
:1002100000F01FF817EB00094E41201EA4F1010465
:10022000DFDC484631462A464346BDE8F09FD2B25D
:1002300001E000F8012B491EFBD270470022F6E7CF
:1002400010B513460A4604461946FFF7F0FF20464C
:1002500010BD202A04DB203A00FA02F1002070478A
:100260009140C2F1200320FA03F3194390407047F4
:10027000202A04DB203A21FA02F00021704721FAFB
:1002800002F3D040C2F12002914008431946704762
:10029000064C074D06E0E06840F0010394E80700D3
:1002A00098471034AC42F6D3FFF778FFAC2600082D
:1002B000CC26000870B58C1810F8015B15F0070308
:1002C00001D110F8013B2A1106D110F8012B03E0EF
:1002D00010F8016B01F8016B5B1EF9D12B0705D4F7
:1002E0000023521E0DD401F8013BFAE710F8013B40
:1002F000CB1A921C03E013F8015B01F8015B521E5C
:10030000F9D5A142D8D3002070BDFEE770470000A8
:100310002DE9F84F00224FF0010803254FF00F0E92
:100320000B6808FA02F42340A34271D14E68012EF3
:1003300005D0022E03D0112E01D0122E15D18668C1
:10034000570005FA07FC26EA0C06D1F80CC00CFA97
:1003500007FC4CEA060CC0F808C04668A6430C79B6
:10036000C4F30014944034434460C668570005FA4F
:1003700007FC8C6826EA0C06BC403443C4604C6819
:10038000022C01D0122C13D1D40800EB8404A34614
:10039000D4F8209054074FEAD46A0EFA0AF629EAF4
:1003A00006090E6906FA0AF646EA0906CBF8206045
:1003B00004680E7924EA0C0406F00306BE402643C6
:1003C00006604C68E40056D52E4C266846F48046FC
:1003D0002660246822F0030604F4804400942A4C2A
:1003E0003444A446D4F808489607370F0EFA07F6A7
:1003F000B443264EB04201D1002615E0244EB0424F
:1004000001D1012610E0234EB04202D102260BE0BA
:1004100031E0214EB04201D1032605E01F4EB0422B
:1004200001D1042600E00726BE402643CCF8086828
:100430001B4E34684F689C43FF0300D51C43346057
:10044000174E361D34684F689C43BF0300D51C43CC
:100450003460134E083634684F689C43FF0200D561
:100460001C4334600E4E0C3634684F689C43BF0208
:1004700000D51C433460521C102AFFF451AFBDE874
:10048000F88F000044380240003001400000024074
:100490000004024000080240000C0240001002402C
:1004A000003C014001488068704700003808002087
:1004B0000248816802781144816070473808002042
:1004C0000B4810B5016841F400710160016841F406
:1004D00080610160016841F480710160032000F0D7
:1004E00061F8002000F006F800F024F8002010BDAC
:1004F000003C024070B50D4D04464FF47A712878E7
:10050000B1FBF0F00A490968B1FBF0F000F0F6FA2F
:1005100048B9102C07D200222146501E00F022F8C4
:1005200000206C6070BD012070BD00003808002004
:10053000440800200A4808B5016841F48041016080
:10054000006800F4804000900548001F016841F0F9
:1005500080510160006800F08050009008BD0000EC
:1005600044380240F0B40E4B1B680C46C3F3022320
:10057000C3F10705042D00D90425191D072901D24F
:10058000002300E0DB1E012606FA05F1491E21408A
:1005900099409E40761E16403143F0BC00F0AEBC40
:1005A0000CED00E0064900F0070208684FF6FF0373
:1005B000184040EA0220034A1043086070470000D8
:1005C0000CED00E00000FA052DE9F0470E460500AD
:1005D00065D0DFF81481D8F80000F7B200F00F0002
:1005E000B04207D288F80070D8F8000000F00F0081
:1005F000B04254D128683D4C810712D5400703D53D
:10060000206840F4E05020602878000703D5206877
:1006100040F4604020602068A96820F0F0000843A2
:1006200020602878C0072DD0304968680839012833
:1006300012D0022813D0032811D009688907002995
:100640002DDA216821F0030101432160FFF72AFF21
:10065000814641F2883A0EE009688903EFE70968AC
:100660008901ECE7FFF71EFFA0EB0901514502D914
:100670000320BDE8F0872068696800F00C00B0EB4B
:10068000810FEFD1D8F80010404601F00F01B142C0
:1006900007D90770006800F00F00B04201D00120B8
:1006A000E7E72878400705D52068E96820F4E0509E
:1006B000084320602878000706D52068296920F4BF
:1006C000604040EAC100206000F038F82168084A24
:1006D000C1F30311515CC840064908600648006830
:1006E000FFF708FF0020C4E7003C02400838024042
:1006F00094260008440800203C08002004480549CE
:1007000000680968044AC1F38221515CC8407047FF
:100710004408002008380240A4260008044805497F
:1007200000680968044AC1F34231515CC84070470F
:100730004408002008380240A4260008154810B5D7
:10074000006810F00C02144813D01449042A0FD08A
:10075000082A0ED10F4C241F2268236802F03F02A2
:100760005B0207D52068C0F38810A0FB010106E0FA
:10077000084610BD2168C1F38811A1FB00010023C8
:10078000FFF724FD2168C1F30141491C4900B0FB7A
:10079000F1F010BD083802400024F40040787D01DB
:1007A0002DE9F84F040076D02078DFF838A3CE4D3D
:1007B000C00749D0DAF800105046C1F38101012981
:1007C00008D00068C0F3810002280AD1281D006803
:1007D000400206D52868800336D560680028E2D03C
:1007E00032E06068B0F5803F10D0B0F5A02F2868E7
:1007F00010D020F480302860286820F48020286001
:100800006068A0B1FFF74EFE06460CE0286840F491
:100810008030F4E740F480202860F7E7FFF742FEDD
:10082000801B642873D828688003F7D50CE0FFF795
:1008300039FE064605E000BFFFF734FE801B642842
:10084000F0D828688003F7D42078DFF8A0828007EA
:100850004FF000093ED5DAF80010504611F00C0FA9
:1008600009D00068C0F3810002280BD19D48001F09
:100870000068400206D42868800715D5E068012882
:1008800009D111E0E068B8B10120C8F80000FFF715
:1008900009FE064605E020E1FFF704FE801B022862
:1008A000C0D828688007F7D52868216920F0F800AB
:1008B00040EAC10028600DE0C8F80090FFF7F2FDA3
:1008C000064604E0FFF7EEFD801B02281FD82868CB
:1008D0008007F7D42078000722D5824E84486169CA
:1008E0006C3671B101210160FFF7DCFD074604E0C1
:1008F000FFF7D8FDC01B022809D830688007F7D55C
:100900000EE0C0F80090FFF7CDFD074605E082E05D
:10091000FFF7C8FDC01B02287DD830688007F7D4D8
:100920002078400768D5DFF8BCB100270BF1380B01
:10093000DBF80000C0000BD4DBF8001041F0805160
:10094000CBF80010DBF80000012700F08050009089
:10095000684E3068C00510D4306840F48070306054
:10096000FFF7A0FD009005E0FFF79CFD0099401AFD
:10097000022850D83068C005F6D55A4EA0686836AF
:1009800001280FD00528306810D020F00100306019
:10099000306820F004003060A068B8B1FFF782FD35
:1009A00000900FE0306840F00100F4E740F00400F0
:1009B0003060F7E7FFF776FD0099411A41F2883081
:1009C000814266D830688007F4D50EE0FFF76AFDF3
:1009D000009007E0FFF766FD0099411A41F2883068
:1009E000814256D830688007F4D42FB1DBF800106C
:1009F00021F08051CBF80010A069D0B3DAF80020C4
:100A00005146C2F38102022A4AD00228484607D042
:100A1000C8F8600000E03CE0FFF744FD04463BE01E
:100A20004746C8F86000FFF73DFD064605E000BFF9
:100A3000FFF738FD801B02282BD828688001F7D4E7
:100A4000D4E907010843A16A2B4A490802EB014196
:100A5000626A41EA8211084394F82C1040EA01616D
:100A60002048001F016001203866FFF71BFD044687
:100A700005E034E0FFF716FD001B022809D82868BE
:100A80008001F7D52BE000BFFFF70CFD001B02280B
:100A900002D90320BDE8F88F28688001F4D41EE055
:100AA0000128F7D00868E26900F48001914214D16E
:100AB000226A00F03F0191420FD147F6C071626A8D
:100AC0000140914209D1A26A00F44031914204D11F
:100AD000E16A00F07060884201D00120DAE700206E
:100AE000D8E70000083802400038024000004742C2
:100AF000800E4742007000400000FFFF10B5401E0E
:100B0000B0F1807F01D3012010BD4FF0E02460617F
:100B10000F21601700F0F2F90020A061072020618A
:100B2000002010BD70B5040004D094F839000025F1
:100B300010B106E0012070BD84F83850204600F066
:100B400023F8242084F839002068C16821F400517A
:100B5000C160204600F0FAF82068016921F4904154
:100B600001612068416921F02A0141612068C16862
:100B700041F40051C160E563202084F8390084F815
:100B80003A00002070BD000010B586B00446142164
:100B90006846FFF753FB14492068884221D1134867
:100BA000016841F010010160006800F0100005903C
:100BB0000E481438016841F001010160006869467F
:100BC00000F0010005904FF4C060009002200190F9
:100BD0000120029003200390072004900448FFF7AF
:100BE00097FB06B010BD00000010014044380240E1
:100BF000000002402DE9F843044690F839001F46F2
:100C000016460D46202850D1B5B1AEB194F8380043
:100C100001284AD0012084F838004FF00008C4F8B9
:100C20003C80212084F83900FFF73CFCA6848146F3
:100C3000E68484F8388026E00120BDE8F883E08C63
:100C4000401EE084A0684B46B0F5805F4FF0000284
:100C50004FF080012046009703D000F00BF9E8B96F
:100C60000DE000F007F9C8B928882168C0F3080032
:100C70004860206908B16D1C05E0AD1C03E02168E7
:100C800015F8010B4860E08C0028D8D14B460022B3
:100C900040212046009700F0EDF808B10320CCE792
:100CA000202084F839000020C7E70220C5E7FEE7CE
:100CB000FEE7704770477047FFF7FABB10B592B078
:100CC00030216846FFF7BAFA14210CA8FFF7B6FAEC
:100CD00015480024016841F080510160006800F06F
:100CE000805011901148016821F4404141F40041C5
:100CF00001600068069400F44040119002200090CA
:100D000001200390102004906846FFF749FD0F2052
:100D1000CDE90C04A020CDE90E0400210CA810940C
:100D2000FFF752FC12B010BD403802400070004086
:100D30000548016841F47001016003494FF000600B
:100D4000803908607047000088ED00E02DE9F0412F
:100D5000044600680169E26821F4405111430161D1
:100D60002169A068E2690843616911430843216869
:100D7000CA6849F20C639A430243CA602068416919
:100D8000A26921F4407111434161E069192764258A
:100D90003226B0F5004F354A354920684FF000083B
:100DA00006D0884201D0904236D1FFF7B7FC35E03B
:100DB000884201D0904202D1FFF7B0FC01E0FFF77A
:100DC0009DFC61684A18A0FB070148EB0803FFF788
:100DD000FDF90146B0FBF5F00201B1FBF5F06FF053
:100DE0001803584301EB800006EBC000B0FBF5F0A0
:100DF00000F0F80002EB4002B1FBF5F0584301EBC4
:100E0000800006EBC000B0FBF5F000F007002168A1
:100E100010448860BDE8F081FFF770FC61688B0FBB
:100E20008A00A0FB0701FFF7D1F90146B0FBF5F0FE
:100E30006FF01802504301EB800006EB0010B0FB8E
:100E4000F5F000F0F002B1FBF5F002EB0012B1FB9F
:100E5000F5F06FF01803584301EB800006EB00102B
:100E6000B0FBF5F000F00F00D1E7000000140140E6
:100E7000001001402DE9F041984617460E46044601
:100E8000069D1DE0681C1BD02DB1FFF70BFBA0EBEE
:100E90000800A84214D92068C16821F4D071C1604B
:100EA0002068416921F001014161202084F8390066
:100EB00084F83A00002084F838000320BDE8F0816F
:100EC0002068006836EA000004D00020B842D9D07B
:100ED0000020F3E70120F9E7FEE700000FB4054B1F
:100EE00010B503A9044A029800F028F810BC5DF878
:100EF00014FB000091180008480800200907090E9B
:100F0000002804DB00F1E02080F80014704700F0B6
:100F10000F0000F1E02080F8141D704702E008C8BF
:100F2000121F08C1002AFAD170477047002001E063
:100F300001C1121F002AFBD1704700002DE9FF4FAD
:100F40008DB09B460F460446002606E025280BD0B0
:100F50005A460F999047641C761C20780028F5D1DA
:100F600011B03046BDE8F08F0025A846012298490F
:100F700000E0054314F8013F203B02FA03F0084269
:100F8000F7D120782E2817D114F8010F45F0040569
:100F90002A280ED06FF02F022078A0F13001092905
:100FA0000AD808EB880102EB410100EB0108641C40
:100FB000F2E757F8048B641C20786C280DD004DC11
:100FC0004C2812D06A2811D104E074280DD07A2858
:100FD0000CD10AE045F4001507E0617845F480156E
:100FE000814202D1641C05F58015641C2278692AAF
:100FF00045D008DC002AB3D0582A69D0632A10D023
:10100000642A08D13BE0702A67D0732A13D0752A6E
:101010005CD0782A5CD010465A460F999047761CCF
:10102000D3E017F8040B8DF8000000208DF80100C4
:10103000E946012003E057F8049B4FF0FF306907B1
:101040004FF0000501D40AE06D1C45450DDA8542DC
:10105000FADB19F805100029F6D106E06D1C85426F
:10106000FCDB19F805100029F8D12E4404E019F82A
:10107000010B5A460F9990476D1EF8D2A5E00A2041
:101080000021CDE90801C5F3025002280DD001CF9F
:10109000C117031E71F100030DDA4FF0000CD0EB05
:1010A0000C006CEB01012D2308E0FF1D27F0070762
:1010B000F7E80201EDE72B0504D52B238DF8283046
:1010C00001233BE0EB0739D02023F7E70A2000E0BB
:1010D00010200021CDE9080107E01020002145F093
:1010E0000405CDE908014FF00808C5F302500228B5
:1010F0000FD001CF00214FF0000A2B071FD5702A17
:101100000DD0DDE908C38CF0100C5CEA030C0CD0A8
:1011100015E0FF1D27F00707F7E80201EBE7402283
:101120008DF828204FF0010A0BE050EA010306D0A9
:1011300030238DF828308DF8292002239A46582A2A
:1011400004D024A20DF120090B9209E026A2F9E7B0
:10115000DDE90823FFF73AF80B9B9B5C09F8013D9A
:1011600050EA0102F4D1ADEB090020300890680785
:1011700001D44FF001080899884502DDA8EB010071
:1011800000E000208046002506E00AA85A46405D9F
:101190000F9990476D1C761C5545F6DB04E0302016
:1011A0005A460F999047761CB8F10001A8F1010842
:1011B000F5DC05E019F8010B5A460F999047761CAB
:1011C0000899481E08900029F4DC641CC5E600005C
:1011D000092801003031323334353637383961620D
:1011E00063646566000000003031323334353637D1
:1011F00038394142434445460000000070B5084C70
:10120000608900F0BBFD05466089401C80B200F09B
:10121000B5FD45EA0020E0816089801C608170BDD9
:101220000000002070B50D4C608900F0A7FD054658
:101230006089401C80B200F0A1FD45EA0020E27800
:1012400000F47F411044E08100F47F40884201D0E7
:10125000012020726089801C608170BD0000002028
:1012600070B50D4C608900F089FD05466089401C11
:1012700080B200F083FD45EA0020227900F47F412E
:101280001044E08100F47F40884201D001202072A8
:101290006089801C608170BD0000002070470000E4
:1012A00070B52A4C0120E07100F0FEFA6082A2784D
:1012B0006379111803F00105294489B2A1820D0A4E
:1012C00002D043F0010301E023F00103637111F048
:1012D000FF0FDBB202D023F0020301E043F0020370
:1012E000637181EA0203484003401806607902D521
:1012F00040F0400001E020F0400060710806607995
:1013000002D540F0800001E020F080006071C0B2A2
:10131000030719D520F0010302F00F0063710928BB
:1013200001D9921DA270D0B200F0F002902A04D927
:101330006030A07043F001006071D4E90A02401CE3
:1013400042F10002C4E90A02A17070BD0000002051
:1013500010B50E4C0120E07100F0A6FA6082A17871
:101360000140A182607902D020F0020001E040F04B
:10137000020060710806607902D540F0800001E04B
:1013800020F080006071A17010BD000000000020FE
:1013900010B500F089FA13494FF6FF72488202EA4D
:1013A00040008882020A4A7902D042F0010201E03C
:1013B00022F001024A7110F0FF0FD2B202D022F0E7
:1013C000020201E042F002024A7102064A7902D5A5
:1013D00042F0800201E022F080024A71BDE8104034
:1013E00000F0B8BC000000200D4810B54179C907D5
:1013F00014D141898181028A01F47F430A4402F4B5
:101400007F4442810246A342D2E90A1201D0891CDC
:1014100000E0491C42F10002C0E90A1210BD0000C0
:10142000000000200D4810B54179C90714D041894A
:101430008181028A01F47F430A4402F47F4442819D
:101440000246A342D2E90A1201D0891C00E0491CDD
:1014500042F10002C0E90A1210BD000000000020A5
:101460000D4810B54179890714D541898181028AD7
:1014700001F47F430A4402F47F4442810246A342BE
:10148000D2E90A1201D0891C00E0491C42F1000295
:10149000C0E90A1210BD00000000002010B500F0E5
:1014A00003FA094948828A7802408A824A7902D03E
:1014B00022F0020201E042F0020202F03F0200F0DC
:1014C000C00002434A7110BD000000200D4810B555
:1014D0004179090614D541898181028A01F47F434B
:1014E0000A4402F47F4442810246A342D2E90A122E
:1014F00001D0891C00E0491C42F10002C0E90A1237
:1015000010BD0000000000200D4810B5417989078A
:1015100014D441898181028A01F47F430A4402F490
:101520007F4442810246A342D2E90A1201D0891CBB
:1015300000E0491C42F10002C0E90A1210BD00009F
:10154000000000200D4810B54179090614D44189E6
:101550008181028A01F47F430A4402F47F4442817C
:101560000246A342D2E90A1201D0891C00E0491CBC
:1015700042F10002C0E90A1210BD00000000002084
:1015800070B50E4C6089401C80B2608100F0BEFBDB
:10159000607940F0100000F0D1FB607940F0040069
:1015A00060714FF6FE7000F0E9FB05464FF6FF70E4
:1015B00000F0E4FB45EA0020608170BD00000020DF
:1015C0000D4810B54179490614D441898181028AB8
:1015D00001F47F430A4402F47F4442810246A3425D
:1015E000D2E90A1201D0891C00E0491C42F1000234
:1015F000C0E90A1210BD0000000000200D4810B51F
:101600004179490614D541898181028A01F47F43D9
:101610000A4402F47F4442810246A342D2E90A12FC
:1016200001D0891C00E0491C42F10002C0E90A1205
:1016300010BD0000000000200248417921F00101A6
:1016400041717047000000200248417921F00801F3
:1016500041717047000000200248417921F00401E7
:1016600041717047000000200248417921F040019B
:10167000417170470000002010B5134C0120E0714B
:1016800000F012F96082A278111A89B2C0B2A18268
:101690009042607903D800BF40F0010001E020F0E3
:1016A00001006071C0B202D140F0020001E020F000
:1016B000020060710806607902D540F0800001E008
:1016C00020F08000607110BD0000002010B500F017
:1016D000EBF811494882CB781A1A92B2C0B28A82CA
:1016E0009842487903D800BF40F0010001E020F0A3
:1016F00001004871C0B202D140F0020001E020F0C8
:10170000020048711006487902D540F0800001E0DF
:1017100020F08000487110BD0000002010B500F0DE
:10172000C3F8114948820B791A1A92B2C0B28A8260
:101730009842487903D800BF40F0010001E020F052
:1017400001004871C0B202D140F0020001E020F077
:10175000020048711006487902D540F0800001E08F
:1017600020F08000487110BD0000002010B500F08E
:1017700013F8FFF781FF0748C179002909D0017AE2
:10178000002906D0D0E90A12491E42F1FF32C0E911
:101790000A1210BD0000002010B500F085F80E49B7
:1017A0004882401E80B288824A7910F0FF0F02D032
:1017B00022F0020201E042F002024A7102064A7976
:1017C00002D542F0800201E022F080024A71BDE8B9
:1017D000104000F0BFBA0000000000200C48024694
:1017E000C178491E11F0FF01C170527902D022F078
:1017F000020201E042F0020209064271D1B202D5B2
:1018000041F0800101E021F080014171704700004A
:10181000000000200C4802460179491E11F0FF012A
:101820000171527902D022F0020201E042F002027C
:1018300009064271D1B202D541F0800101E021F0E8
:1018400080014171704700000000002010B50F4C6E
:101850000120E07100F028F86082A1784140A18267
:10186000607911F0FF0F02D020F0020001E040F09B
:10187000020060710806607902D540F0800001E046
:1018800020F080006071A17010BD000000000020F9
:1018900013B54FF6FF73012269460248FFF7AAF914
:1018A00000981CBD4C0800200649A1F1380082793F
:1018B00051F82210044A914201D180787047C089C2
:1018C00000F05CBA380000209D12000802494889E7
:1018D000C881401C4881704700000020704700000C
:1018E00010B5FFF7E1FF0E494882401C80B28882A4
:1018F0004A7910F0FF0F02D022F0020201E042F01C
:1019000002024A7102064A7902D542F0800201E0E1
:1019100022F080024A71BDE8104000F01BBA0000BE
:101920000000002070B50F4C608900F027FA0546D2
:101930006089401C80B200F021FA45EA0020411C79
:1019400000F47F45C9B20D4300F018FA0646284658
:1019500000F014FA46EA0020E0816089801C608172
:1019600070BD00000000002070B50A4D6889411C60
:10197000698100F003FAE9780844C4B2204600F017
:10198000FDF90646641CE0B200F0F8F946EA0020D2
:10199000E88170BD0000002070B50E4C6089411CCC
:1019A000618100F0EBF9411CC9B20D4600F0E6F987
:1019B0000646284600F0E2F946EA0020227900F4C3
:1019C0007F411044E08100F47F40884201D0012033
:1019D000207270BD000000200C480246C178491CEE
:1019E00011F0FF01C170527902D022F0020201E031
:1019F00042F0020209064271D1B202D541F08001E3
:101A000001E021F0800141717047000000000020DA
:101A10000C4802460179491C11F0FF01017152790D
:101A200002D022F0020201E042F0020209064271F5
:101A3000D1B202D541F0800101E021F08001417175
:101A4000704700000000002010B5FFF749FF00F0CC
:101A50008BFA0748C179002909D0017A002906D0FC
:101A6000D0E90A12491E42F1FF32C0E90A1210BD44
:101A7000000000200148C18941817047000000201A
:101A800010B5044C6089401E80B200F03FF9E08937
:101A9000608110BD0000002010B500F005F8BDE821
:101AA000104000F01FB8000010B50D4C0120E0718F
:101AB000FFF7FAFE608210F0FF00A070617902D09B
:101AC00021F0020101E041F0020100066171C8B29B
:101AD00002D540F0800001E020F08000607110BD70
:101AE0000000002010B50D4C0120E071FFF7DCFE76
:101AF000608210F0FF00E070617902D021F00201F5
:101B000001E041F0020100066171C8B202D540F067
:101B1000800001E020F08000607110BD0000002016
:101B200010B50D4C0120E071FFF7BEFE608210F091
:101B3000FF002071617902D021F0020101E041F043
:101B4000020100066171C8B202D540F0800001E0D8
:101B500020F08000607110BD0000002010B5FFF77C
:101B6000A3FE12490246488240088882D2074A7979
:101B700002D042F0010201E022F001024A7110F0AD
:101B8000FF0FD2B202D022F0020201E042F00202C4
:101B90004A7102064A7902D542F0800201E022F041
:101BA00080024A71BDE8104000F0D4B80000002067
:101BB000FEF786FCFFF782F80B480A490C22016009
:101BC0004FF41651416000218160C160C0E90412E8
:101BD0008161C161FEF7A6FF00F0F2F800F06CFA37
:101BE000FCE70000001001404C0800200948817902
:101BF0007C290BD006DC1C2908D03C2906D05C29A6
:101C000006D103E0DC2901D0FC2901D10121C171F9
:101C1000704700000000002010B50F4C0120E0715B
:101C2000FFF742FE6082A1780143A182607911F042
:101C3000FF0F02D020F0020001E040F002006071CE
:101C40000806607902D540F0800001E020F08000B5
:101C50006071A17010BD0000000000200148807874
:101C600000F06CB8000000200248407940F01000FD
:101C700000F064B80000002010B500F03BF80A49FD
:101C800088704A7910B122F0020201E042F00202AB
:101C900000064A71D0B202D540F0800001E020F089
:101CA0008000487110BD00000000002010B500F059
:101CB00021F8024940F02000487110BD00000020CA
:101CC00070B50B4C6078401CC0B200F5807000F01D
:101CD00055F805466078801CC0B200F5807000F0B1
:101CE0004DF8617845EA0020891C617070BD0000E4
:101CF0000000002004494878401CC0B2487000F53C
:101D0000807000F03BB800000000002070B50A4C65
:101D10000546010A607800F5807000F091FA60785D
:101D2000E9B2401EC0B200F5807000F089FA607818
:101D3000801E607070BD000000000020044B014652
:101D40005A78501E587002F5807000F079BA000081
:101D5000000000200749A1F13802937951F82310BF
:101D6000054B994201D190707047C1B2D08900F003
:101D700067BA0000380000209D12000810B5014627
:101D800002A0FFF7ABF8022010BD0000524541440D
:101D900020616464726573733A2025780A0000003C
:101DA00010B5064C6089411C6181FFF7E7FF208276
:101DB000010602D540F47F40208210BD00000020C3
:101DC00010B54FF6FC70FFF7D9FF04464FF6FD70D3
:101DD000FFF7D4FF44EA00210648418100218170C9
:101DE000C1700171FF214170417941F020014171C1
:101DF00010BD00000000002010B500F013F8FFF740
:101E0000A7FA0748C179002909D0017A002906D02C
:101E1000D0E90A12491E42F1FF32C0E90A1210BD90
:101E20000000002010B5FFF73FFD134948824A79B2
:101E3000134660F35F0398B28882030A02D042F02F
:101E4000010201E022F001024A7110F0FF0FD2B24C
:101E500002D022F0020201E042F002024A710206C0
:101E60004A7902D542F0800201E022F080024A71F4
:101E7000BDE81040FFF76EBF0000002010B5FFF76F
:101E800013FD1449024648824B79400803F00104CF
:101E900040EAC4108882D20702D043F0010201E078
:101EA00023F001024A7110F0FF0FD2B202D022F0EB
:101EB000020201E042F002024A7102064A7902D5AA
:101EC00042F0800201E022F080024A71BDE8104039
:101ED000FFF740BF0000002010B5FFF7CFFFFFF76E
:101EE000DFF90748C179002909D0017A002906D015
:101EF000D0E90A12491E42F1FF32C0E90A1210BDB0
:101F00000000002010B5FFF7F5FE034C6071FFF7ED
:101F1000D7FE6082608110BD0000002010B5FFF781
:101F2000CFFE02494882401C488110BD00000020BD
:101F300010B500F0BBF800F0F9F80A4CA078E17891
:101F40000840FFF707FFE079002809D0207A002831
:101F500006D0D4E90A01401E41F1FF31C4E90A016B
:101F600010BD00000000002070B52D4C0120E07174
:101F7000FFF79AFC80F0FF026282A17863798818EB
:101F800003F00105284480B2A082050A02D043F084
:101F9000010301E023F00103637110F0FF0FDBB2D6
:101FA00002D023F0020301E043F00203637180EAF0
:101FB0000103424013401A06627902D542F0400202
:101FC00001E022F0400262710206627902D542F01D
:101FD000800201E022F080026271D2B213071CD5A8
:101FE0006639C9B222F00102627101F00F03A170DB
:101FF000092B01D9891DA170C9B201F0F003902B02
:1020000004D96031A17042F001016171D4E90A1272
:10201000491C42F10002C4E90A12A07070BD000020
:10202000000000200248417941F0010141717047F0
:10203000000000200248417941F0080141717047D9
:10204000000000200248417941F0040141717047CD
:102050000000002010B5FFF79BF9FFF7DDFD0748F2
:10206000C179002909D0017A002906D0D0E90A12E5
:10207000491E42F1FF32C0E90A1210BD00000020E3
:1020800010B5FFF76BFDFFF7E1FB0748C1790029A9
:1020900009D0017A002906D0D0E90A12491E42F17E
:1020A000FF32C0E90A1210BD00000020014880780C
:1020B000FFF750BE0000002070B51A4C6089411C2B
:1020C0006181FFF75BFEA0716179002541F020017D
:1020D0006171E57104F13801257251F820008047E3
:1020E000A17904F5876050F8210080470E48A17956
:1020F00050F82100D4E90A1240185541C4E90A05F4
:10210000C4E90C05D4E90801401C41F10001C4E90F
:1021100008012078002803D0A069BDE8704000477E
:1021200070BD000000000020942200080148C07823
:10213000FFF710BE0000002001480079FFF70ABE3B
:10214000000000200A4802468178C170527911B11E
:1021500022F0020201E042F0020209064271D1B20D
:1021600002D541F0800101E021F08001417170470A
:10217000000000200A48024681780171527911B1AD
:1021800022F0020201E042F0020209064271D1B2DD
:1021900002D541F0800101E021F0800141717047DA
:1021A000000000200A4802464178C170527911B1FE
:1021B00022F0020201E042F0020209064271D1B2AD
:1021C00002D541F0800101E021F0800141717047AA
:1021D000000000200A480246C1788170527911B18E
:1021E00022F0020201E042F0020209064271D1B27D
:1021F00002D541F0800101E021F08001417170477A
:10220000000000200148C1784170704700000020A4
:102210000A48024601798170527911B122F0020216
:1022200001E042F0020209064271D1B202D541F04A
:10223000800101E021F08001417170470000002021
:102240007047000010B5044C6089411C6181FFF7A4
:1022500095FDE08110BD00000000002010B5054C88
:102260006089411C6181FFF789FDE1780844C0B2B3
:10227000E08110BD0000002010B5054C6089411CB4
:102280006181FFF77BFD21790844C0B2E08110BD78
:10229000000000200700000006000000020000000F
:1022A000080000000300000003000000050000001B
:1022B0000500000003000000020000000200000012
:1022C00002000000040000000400000006000000FE
:1022D00006000000020000000500000002000000EF
:1022E00008000000040000000400000006000000D8
:1022F00006000000020000000400000002000000D0
:1023000007000000040000000400000007000000B7
:1023100007000000060000000600000002000000A8
:10232000080000000300000003000000050000009A
:102330000500000004000000020000000200000090
:10234000020000000400000004000000060000007D
:10235000060000000200000005000000020000006E
:102360000800000004000000040000000600000057
:10237000060000000200000004000000020000004F
:102380000700000004000000040000000700000037
:102390000700000006000000060000000200000028
:1023A000080000000300000003000000050000001A
:1023B0000500000003000000020000000200000011
:1023C00002000000030000000400000006000000FE
:1023D00006000000020000000500000002000000EE
:1023E00008000000040000000400000006000000D7
:1023F00006000000020000000400000002000000CF
:1024000007000000040000000400000007000000B6
:1024100007000000060000000600000002000000A7
:102420000800000003000000030000000500000099
:10243000050000000400000002000000020000008F
:10244000020000000500000004000000060000007B
:10245000060000000200000005000000020000006D
:102460000800000004000000040000000600000056
:10247000060000000200000004000000020000004E
:102480000700000004000000040000000700000036
:10249000070000000200000006000000020000002B
:1024A000060000000300000003000000030000001D
:1024B0000300000002000000020000000200000013
:1024C00002000000040000000400000004000000FE
:1024D00004000000020000000600000002000000EE
:1024E00006000000040000000400000004000000DA
:1024F00004000000020000000500000002000000CF
:1025000005000000050000000500000005000000B7
:1025100005000000020000000600000002000000AC
:10252000060000000300000003000000030000009C
:102530000300000002000000020000000200000092
:10254000020000000400000004000000040000007D
:10255000040000000200000005000000020000006E
:10256000050000000400000004000000040000005A
:10257000040000000200000004000000020000004F
:10258000040000000400000004000000040000003B
:10259000040000000200000006000000020000002D
:1025A0000800000003000000030000000500000018
:1025B0000500000002000000020000000200000010
:1025C00002000000040000000400000006000000FB
:1025D00006000000020000000500000002000000EC
:1025E00008000000040000000400000006000000D5
:1025F00006000000020000000400000002000000CD
:1026000007000000040000000400000007000000B4
:1026100007000000020000000600000002000000A9
:102620000800000003000000030000000500000097
:10263000050000000200000002000000020000008F
:10264000020000000400000004000000060000007A
:10265000060000000200000005000000020000006B
:102660000800000004000000040000000600000054
:10267000060000000200000004000000020000004C
:102680000700000004000000040000000700000034
:102690000700000000000000000000000102030429
:1026A000060708090000000001020304CC26000808
:1026B000000000204C080000B40200088828000830
:1026C0004C080020440400002C0F0008013813DDE2
:1026D00018140869196A0808CB45220429181ACD6C
:1026E000044B9D1208CBFD110413A11D5B089940FA
:1026F00029081A5D34A90429181A613C6908DA25E9
:10270000042944097A80697809A6801A2524094A8F
:10271000802954297869080916806908A97C091A52
:10272000805A7904091680290C290409D680690485
:102730000916806904097E801381151408191C1478
:1027400008ED1B4C0855200829104B9113101A69ED
:102750000C6910291CE9200A1D45400B1C39162064
:1027600013811A5B08515C1AF9CC4B9D14104B2550
:102770001E101AAD2C69102924E9205ACD10694089
:102780002908A9201A2564091A2013051F4C084D91
:1027900018185A81A029105A5D101A5D80691029F5
:1027A0001C1A75B0A9200B1CC115400B1C59162012
:1027B0001A1D804BA112185AD9E429101A7D0C2930
:1027C000101A798069106980A9201AFD80091A40C1
:1027D0001A4564091A2029105AAD981A318C4B39C0
:1027E00021101A2D0829105A15BC1AD5102908E9EC
:1027F000208BE913400912204B1122101A05086999
:1028000024A9301A21041AA9D41AE5041A9904E952
:10281000101A754829105A4580E9204B25141029B3
:102820001C0912404B6916101AA540091220131DED
:10283000171B08792429401A6D0C69101A99082968
:10284000101A112429101ADD0C2924E920CB0915AE
:10285000402908A9201A490C091A201ACD0C4B69E5
:102860001F181A496C69104BE118108BD9192029CF
:1028700008E920CB611440692869200B1C35202011
:08288000320182105324F40020
:040000050800019559
:00000001FF
