:020000040800F2
:10000000E0140020C9000008390D0008FB0C0008AE
:1000100000000000000000000000000000000000E0
:10002000000000000000000000000000950D000826
:100030000000000000000000810D0008970D00087E
:10004000DB00000800000000850D0008DB00000850
:10005000DB000008DB000008DB000008DB00000814
:1000600000000000DB000008DB000008DB000008E7
:10007000DB000008DB000008DB00000800000000D7
:10008000DB000008DB00000800000000DB000008C7
:10009000DB000008DB000008DB000008DB000008D4
:1000A000DB000008DB000008DB0000087512000818
:1000B000DB0000080348854600F03CF80048004794
:1000C000451D0008E014002004488047044800470C
:1000D000FEE7FEE7FEE7FEE7FEE7FEE77D0E00082F
:1000E000B500000830B50B4601460020202201244F
:1000F00009E00D46D5409D4205D31D469540491B5C
:100100002546954040191546521E002DF1DC30BDA4
:10011000D2B201E00270401C491EFBD2704700229F
:10012000F6E710B513460A4604461946FFF7F0FFF6
:10013000204610BD064C0125064E05E0E36807CCBD
:100140002B430C3C98471034B442F7D3FFF7B6FF6B
:1001500094520008B452000870B58C180578401C01
:100160006B075B0F01D10378401C2A1106D102787E
:10017000401C03E006780E70401C491C5B1EF9D140
:100180002B0705D40023521E0DD40B70491CFAE72F
:100190000378401CCB1A921C03E01D780D70491C9B
:1001A0005B1C521EF9D5A142D8D3002070BD70B59A
:1001B0000024014620314A78022A03D004218163B9
:1001C000012416E0026813680E25AB431360026831
:1001D00013685B085B0013600122056C1346AB409B
:1001E000C56B6B604A7000220A70416B002900D019
:1001F0008847204670BD0000F8B500238DE001243B
:100200009C40A44622407DD04C68022C01D0122C88
:100210000CD1DC08A40027183C6A5D07ED0E0F2600
:10022000AE40B4430E69AE4026433E6205685E00B0
:100230000324B4400F79A543BF07BF0FB7402F4336
:1002400007604D68012D05D0022D03D0112D01D07E
:10025000122D0ED18568CF68A543B7402F43876024
:1002600047686546AF430D79ED06ED0F9D403D4370
:100270004560C568A5438C68B4402C43C4604C6895
:10028000E40049D5284CA56901263543A561A46938
:100290009D0834400094254CAD002F19BC689D0783
:1002A0002E0F0F25B540AC430925ED06A84201D11C
:1002B00000250FE01E4DA84201D101250AE01D4D89
:1002C000A84201D1022505E01B4DA84201D103251A
:1002D00000E00525B5402543BD60184C25684E68F3
:1002E0009543F60300D51543256065684E68954330
:1002F000B60300D515436560A5684E689543F602C0
:1003000002D500E008E01543A560E5684E68954316
:10031000B60200D51543E5605B1C0A681446DC4054
:1003200000D06CE7F8BD0000001002400000014062
:100330000004004800080048000C00480004014088
:10034000014800687047000040080020024801682A
:10035000491C0160704700004008002010B50648A5
:100360000168102211430160002000F007F800F03E
:1003700017F8002010BD00000020024010B5044610
:1003800000F0C6F87D21C900FFF7ACFE00F0E6FAE8
:1003900000222146501E00F021F8002010BD000070
:1003A00008B50848816901221143816181691140C2
:1003B0000091C26901040A43C261C069084000900B
:1003C00008BD000000100240C106C90E012088408F
:1003D000014908607047000000E100E010B500F03E
:1003E000ADFC10BDF8B5054644480E460068C00790
:1003F000C00FB0420AD24148016849084900314360
:1004000001600068C007C00FB0425CD128783C4C46
:10041000800705D56068F0218843A96808436060BB
:100420002878C0073FD06868012813D021680228C7
:1004300013D08907002946DA6168890889000143D9
:100440006160FFF77DFF6968074601290DD0022929
:1004500017D024E021688903ECE78901EAE7FFF778
:100460006FFFC11B2748814217D860680007800FC3
:100470000128F4D117E0FFF763FFC11B2148814237
:100480000BD860680007800F0228F4D10BE0FFF75B
:1004900057FFC11B1B48814201D90320F8BD60688A
:1004A0000007800FF3D115480168C907C90FB14291
:1004B0000BD9016849084900314301600068C00751
:1004C000C00FB04201D00120F8BD2878400706D502
:1004D0006068072109028843E9680843606000F00A
:1004E0002DF86168084A0906090F515CC8400749A0
:1004F00008600020FFF742FF0020F8BD0020024006
:1005000000100240881300007952000844080020BF
:10051000014800687047000044080020044805496D
:1005200000684968044A4905490F515CC840704752
:1005300044080020001002408952000810B512A3A0
:100540000FCB88B06C460FC413A30FCB0FC4164952
:100550004A680C20134603401448042B0FD0082B84
:100560000DD193021B0F6C46E45CC96A04AB09070A
:10057000090F595CD20304D5FFF7B4FD604308B0FE
:1005800010BD0B486043FAE702030405060708099B
:100590000A0B0C0D0E0F10100102030405060708CC
:1005A000090A0B0C0D0E0F100010024000127A0009
:1005B00000093D00FEB504460078D04DC00747D085
:1005C00068680007800F012807D068680007800F5F
:1005D000022809D16868C00306D52868800337D58A
:1005E000606800287ED033E0012062680004012AA0
:1005F00011D08100002A01D0052A10D02A68824338
:100600002A602868884328606068002814D0FFF7B3
:1006100097FE06460CE0296801432960F4E72A6842
:100620000A432A60F7E7FFF78BFE801B64286FD828
:1006300028688003F7D50BE0FFF782FE064604E04A
:10064000FFF77EFE801B6428F1D828688003F7D46A
:1006500020780126800700283BDA68680007800FB1
:1006600007D068680007800F022809D16868C003B6
:1006700006D42868800715D5E068012832D111E03A
:10068000E0680028286815D030432860FFF758FE3E
:10069000074604E0FFF754FEC01B0228C7D82868AD
:1006A0008007F7D52868F82188432169C9000843E5
:1006B00028600EE0400840002860FFF741FE074632
:1006C00004E0FFF73DFEC01B0228B0D82868800771
:1006D000F7D42078000724D5E0690028686A10D094
:1006E000304300E008E16862FFF72AFE074604E0B5
:1006F000FFF726FEC01B022899D8686A8007F7D545
:100700000FE0400840006862FFF71AFE074605E068
:100710009DE0FFF715FEC01B022888D8686A800795
:10072000F7D4207804274007002860DA00200190E1
:10073000E869C00008D4E969B8060143E961E969DC
:1007400001400120009101906D480168C90511D454
:100750000168821511430160FFF7F2FD009005E08A
:10076000FFF7EEFD0099401A642870D864480068CD
:10077000C005F5D5A06801280AD0002801D00528B9
:1007800010D0286A400840002862286AB84301E077
:10079000286A30432862A068002812D0FFF7D0FDF5
:1007A00000900AE0286A38432862F1E7FFF7C8FDA5
:1007B0000099411A5348814249D8286A8007F5D5E3
:1007C0000DE0FFF7BDFD009006E0FFF7B9FD0099D1
:1007D000411A4C4881423AD8286A8007F5D40198DA
:1007E000002804D0E969012000078143E9612078ED
:1007F000C00635D5606901280CD0401D686B23D038
:1008000038436863686B400840006863FFF798FDF1
:10081000064622E0686B38436863686B3043686360
:10082000FFF78EFD064604E0FFF78AFD801B0228D5
:100830005BD8686B8007F7D5686BF8218843A1699E
:10084000C900084368630BE0B8436863F4E74CE011
:10085000FFF776FD801B022847D8686B8007F7D426
:10086000206A002846D069680907890F022943D009
:10087000012636060228286805D0B0432860FFF715
:100880005FFD044633E0B0432860FFF759FD07469B
:1008900004E0FFF755FDC01B022826D82868800118
:1008A000F7D4E86AE16A000900010843E862616A76
:1008B000A06A084369683D221204914308436860B6
:1008C000286830432860FFF73BFD044604E0FFF74B
:1008D00037FD001B022808D828688001F7D509E0F9
:1008E000FFF72EFD001B022801D90320FEBD28685A
:1008F0008001F5D40020FEBD0120FEBD00100240A5
:1009000000700040881300007047000010B50446D6
:1009100000688168C9040CD5C068C00509D52046A7
:10092000FFF7F2FF2168C86880221040FF38823844
:10093000C86001200249400448610120607710BD71
:1009400000040140042204490428086902D09043AD
:10095000086170471043FBE700E000E0094910B56B
:10096000401E884201D9012010BD074C606103215F
:10097000081F00F0E3F90020A0610720206100209B
:1009800010BD0000FFFFFF0000E000E07047000026
:10099000F8B503680446D96918680D072D0F07D10B
:1009A0008A0605D5820603D5204600F029FBF8BD4E
:1009B0009A68002D64D0D507ED0FFF26213606403A
:1009C0002E435DD0CE0706D0C60504D501261E6293
:1009D000E36E3343E3668F0702230426002F06DA13
:1009E000D70704D027683B62E76E3743E7664F07B7
:1009F00006D5D20704D022681662E26E1A43E26678
:100A00000A0709D5202202402A4305D0236808227C
:100A10001A62E36E1343E366E26E002AC7D08906CA
:100A200004D5800602D5204600F0EAFAE06E000701
:100A300003D42068806840061CD5204600F0C4FA24
:100A400020688168490611D5816840229143816000
:100A5000606E00280AD012494163606EFFF7A7FB61
:100A60000028A4D0606E416B8847F8BD2046FFF790
:100A70008DFFF8BD2046FFF789FF0020E066F8BD36
:100A80000A0605D5020603D5204600F08FFBF8BD07
:100A90004906FCD54006FAD5204600F0A4FAF8BD78
:100AA000B50F000870B5040005D025466035687A9A
:100AB000002802D006E0012070BD002028722046E8
:100AC00000F026F82420687220680168490849006F
:100AD0000160204600F0D2FA0128EDD0606A0028BB
:100AE00002D0204600F0F8F9206841680122D202C5
:100AF00091434160206881680822914381602068A9
:100B00000168012211430160204600F04AFA70BDDD
:100B100010B586B0044614216846FFF700FB17495C
:100B20002068884227D116488269012189030A4337
:100B3000826182690A4005924269C9000A434261A2
:100B40004069084005900320400200900220019077
:100B500000200290032003900120049009206946A0
:100B6000C006FFF749FB002211461B20FFF736FCA9
:100B70001B20FFF729FC06B010BD00000038014023
:100B80000010024070B5034660339C7A202C39D1A6
:100B900000290BD0002A09D0012584682D03AC421E
:100BA00006D10669002E03D1CE0701D0012070BD09
:100BB0001E7A012E26D001261E7241650146403163
:100BC0000A834A83FF22AC4204D10469002C07D176
:100BD0000D4A05E0002C04D10469002C00D07F22CE
:100BE0008A830021C16622229A72197201688A687A
:100BF00032438A6000680168FF222132114301609C
:100C0000002070BD022070BDFF01000010B500681B
:100C10000449884204D1012203490448FFF7B2FF86
:100C200010BD000000380140000000204C080020EA
:100C3000FFB5064604466036707A83B00D4620281C
:100C400058D1002D0CD00598002809D00120A168AA
:100C50000003814207D12069002804D1E80702D0AF
:100C6000012007B0F0BD307A012843D00120307256
:100C70000020E06621207072FFF762FB019027469A
:100C80004037059838820598788218E0788A401EA7
:100C9000788206980090002280212046019B00F077
:100CA000B8FA002818D10120A1680003814202D1BE
:100CB0002069002812D02168287808856D1C788A60
:100CC0000028E3D106980090002240212046019B95
:100CD00000F09FFA002808D00320C2E72888216886
:100CE000C005C00D0885AD1CE9E72020707200200A
:100CF0003072B6E70220B4E77047FEE710B50D4842
:100D00000B490160E1214902416000218160C1601D
:100D100001610C2281614261C161FFF7C3FE0022C3
:100D200011461B20FFF75AFB1B20FFF74DFB10BDA0
:100D3000003801404C080020704700008307FF2264
:100D4000DB0E9A408907090E994000280BDA00074C
:100D5000000F0838830808489B001818C36993439C
:100D60000B43C3617047830804489B001B18186835
:100D7000904308431860704700ED00E000E400E095
:100D80007047000010B50248FFF7C0FD10BD00001D
:100D9000BC100020704710B5FFF7D8FA10BD000056
:100DA00010B592B030216846FFF7B9F90024164813
:100DB0000C940D940E940F94C26901040A43C2610D
:100DC000C06908401090022000900120039010207C
:100DD000049008946846FFF7EDFB07200C900D94F3
:100DE0000E9400210F940CA8FFF7FCFA00F010F805
:100DF000FFF78EFB0549FFF775F9FFF7AFFD0420FC
:100E0000FFF7A0FD12B010BD00100240C4090000A1
:100E100070B5154E71680C2001401448144C03D075
:100E2000042901D0082901D0206014E0716872689B
:100E300001231B041A4089020D0FF16AAD1C09073A
:100E4000090F491C9A4203D1FFF74CF96843EBE7BD
:100E5000084845432560706807490006000F085C94
:100E60002168C140216070BD0010024000127A006C
:100E70004408002000093D00795200081348016829
:100E80000122114301604168114A1140416001682B
:100E9000104A1140016001680122920491430160EF
:100EA00041683F22120491434160C16A0909090166
:100EB000C162016BFF22143291430163416B490807
:100EC000490041630021816070470000001002402A
:100ED0000CB8FF08FFFFF6FE10B5818CC90707D0DC
:100EE00001684A6801235B049A43836A1A434A6093
:100EF000818C890707D501684A6801231B049A433E
:100F0000C36A1A434A60818C490707D501684A6859
:100F100001239B049A43036B1A434A60818C09079F
:100F200007D501684A680123DB039A43436B1A43E0
:100F30004A60818CC90607D50268916801231B03AA
:100F40009943836B19439160818C890607D50168A9
:100F50008A6801235B039A43C36B1A438A60818CBE
:100F6000490612D503685A6801210905046C8A43B1
:100F700022435A60026C8A4207D1026851680323F7
:100F80005B059943436C19435160818C090607D571
:100F900001684A680123DB04806C9A4302434A607B
:100FA00010BD0021C166202260304272827201723F
:100FB0000846704710B5406A0022014640314A8316
:100FC0004A82FFF7E3FC10BD01680A68FF23213362
:100FD0009A430A6001688A68520852008A60202198
:100FE00060308172704710B501680A6840239A43E7
:100FF0000A60202269210A54FFF77EFE002010BDFE
:1010000070B50246403203466033948B9D7A016886
:10101000222D05D08869082210438861022070BD06
:10102000898C012685683603B54202D10569002DF9
:101030000BD02140446D651C45652170518B491EC4
:101040000904090C518307D015E0456D2140298022
:10105000416D891C4165F1E701680A68FF2421346C
:10106000A2430A6001688A68520852008A602021FF
:101070009972FFF7CBFD002070BD0000F8B5044663
:101080002369A268E5691A43636910202B43002194
:1010900025681A432B680E463E4F3B4013432B6096
:1010A00023685A6803252D03AA43E5682A435A603A
:1010B000236AA26925681A43AB680B273F02BB432A
:1010C0001343AB60344A2568954210D1334A126B02
:1010D0009207920F0ED0012A05D0022A05D0032ACA
:1010E00009D1022007E0042005E0082003E02C4A93
:1010F000954200D100200122E369D203934224D11A
:1011000000280CD002280DD0042813D0082817D0AE
:1011100001260A0912010807400F10432FE0FFF7CC
:10112000FDF909E061681F4A48088018FEF7DAFFF8
:1011300081B2EEE7FFF702FA616840004A08F4E77F
:101140006168012248081204EFE7002808D002284D
:1011500009D004280BD0082814D001263046F8BD49
:10116000FFF7DCF905E061680F4A48080CE0FFF77B
:10117000E5F961684A088018FEF7B4FF80B221687B
:10118000C860EBE7616848088018FEF7ABFF80B2E3
:10119000E860E3E7F369FFFF003801400010024018
:1011A000004400400024F40000127A006921095C28
:1011B000212901D00220704702464032518A00297D
:1011C00012D0012381681B03994202D101690029D1
:1011D00015D0C16C4B1CC364006809780185508A26
:1011E000401E50820020704701680A6880239A439D
:1011F0000A6000680168402211430160F2E7C16C97
:1012000003680988C905C90D1985C16C891CC164A9
:10121000E5E7FFB581B017460E4604460A9D1DE07E
:10122000681C1BD0002D05D0FFF78AF80499401ADE
:10123000A84213D920680168FF22A13291430160BE
:10124000206881684908490081602020603460720C
:10125000A07200202072032005B0F0BD2068C16993
:101260003046884304D00020B842D9D00020F3E7AC
:101270000120F9E710B50248FFF78AFB10BD000016
:101280004C08002002E008C8121F08C1002AFAD149
:1012900070477047002001E001C1121F002AFBD1F6
:1012A0007047000070B5084C608900F039FE0546B3
:1012B0006089401C80B200F033FE00020543E581E6
:1012C0006089801C608170BD0800002070B50E4CE4
:1012D000608900F025FE05466089401C80B200F060
:1012E0001FFE00020543E178280A691889B2E181EE
:1012F000090A00020902814201D00120207260899E
:10130000801C608170BD00000800002070B50E4C8C
:10131000608900F005FE05466089401C80B200F03F
:10132000FFFD000205432179280A691889B2E1818D
:10133000090A00020902814201D00120207260895D
:10134000801C608170BD0000080000207047000014
:1013500070B5294C0125E57100F06EFB6082637960
:10136000A278DE071118F60F891989B2A1820E0A38
:1013700001D02B4301E05B085B0063710B061B0E81
:10138000637902D0FD26334001E0022633436371C6
:101390000B465340484003401806607902D540236D
:1013A000184301E0BF23184060710806607902D538
:1013B0008023184301E04006400E6071C0B203076D
:1013C00018D543085B001007000F6371092801D985
:1013D000921DA270D0B202091201902A03D9603086
:1013E000A0702B436371A26AE06A521C002358412B
:1013F000A262E062A17070BD0800002010B50E4C22
:101400000120E07100F018FB6082A1780140A18208
:10141000607902D0FD22104001E002221043607189
:101420000806607902D58022104301E04006400E94
:101430006071A17010BD00000800002010B500F020
:10144000FBFA124948824004000C8882020A4A7959
:1014500002D001231A4301E0520852004A710206E9
:10146000120E4A7902D0FD231A4001E002231A43EA
:101470004A7102064A7902D580231A4301E05206D6
:10148000520E4A7100F036FD10BD00000800002029
:1014900010B50E4A5079C00716D150899081118A33
:1014A000030A411889B20C0A51811146886A1B024D
:1014B0002402C96AA34202D00023801C01E0002359
:1014C000401C5941D162906210BD0000080000200C
:1014D00010B50E4A5079C00716D050899081118AF4
:1014E000030A411889B20C0A51811146886A1B020D
:1014F0002402C96AA34202D00023801C01E0002319
:10150000401C5941D162906210BD000008000020CB
:1015100010B50E4A5079800716D550899081118AEE
:10152000030A411889B20C0A51811146886A1B02CC
:101530002402C96AA34202D00023801C01E00023D8
:10154000401C5941D162906210BD0000080000208B
:1015500010B500F071FA094948828A7802408A82FF
:101560004A7902D0FD231A4001E002231A43920671
:10157000C023920E184002434A7110BD080000209B
:1015800010B50E4A5079C00916D050899081118A41
:10159000030A411889B20C0A51811146886A1B025C
:1015A0002402C96AA34202D00023801C01E0002368
:1015B000401C5941D162906210BD0000080000201B
:1015C00010B50E4A5079800716D450899081118A3F
:1015D000030A411889B20C0A51811146886A1B021C
:1015E0002402C96AA34202D00023801C01E0002328
:1015F000401C5941D162906210BD000008000020DB
:1016000010B50E4A5079000616D450899081118A7F
:10161000030A411889B20C0A51811146886A1B02DB
:101620002402C96AA34202D00023801C01E00023E7
:10163000401C5941D162906210BD0000080000209A
:1016400070B50E4C6089401C80B2608100F028FCAF
:1016500060791021084300F03BFC607904210843C5
:101660006071074800F05CFC05460548401C00F02E
:1016700057FC00020543658170BD00000800002092
:10168000FEFF000010B50E4A5079400616D450896E
:101690009081118A030A411889B20C0A51811146BE
:1016A000886A1B022402C96AA34202D00023801C5C
:1016B00001E00023401C5941D162906210BD00003E
:1016C0000800002010B50E4A5079400616D5508902
:1016D0009081118A030A411889B20C0A518111467E
:1016E000886A1B022402C96AA34202D00023801C1C
:1016F00001E00023401C5941D162906210BD0000FE
:1017000008000020024841794908490041717047AA
:10171000080000200248F7224179114041717047CA
:10172000080000200248FB224179114041717047B6
:10173000080000200248BF224179114041717047E2
:101740000800002070B5134C0125E57100F074F914
:101750006082A1780A1A92B2A282C0B263798842EA
:1017600001D82B4301E05B085B006371884203D121
:10177000D8B20221084302E0D8B2FD2108406071CE
:101780001006607902D58021084301E04006400E32
:10179000607170BD0800002070B500F04DF912496D
:1017A0004882CA78131A9BB28B82C0B24C7990429D
:1017B00002D801252C4301E0640864004C7190427A
:1017C00003D1E0B20222104302E0E0B2FD22104059
:1017D00048711806487902D58022104301E040067E
:1017E000400E487170BD00000800002070B500F088
:1017F00023F9124948820A79131A9BB28B82C0B22C
:101800004C79904202D801252C4301E06408640021
:101810004C71904203D1E0B20222104302E0E0B2E8
:10182000FD22104048711806487902D580221043E5
:1018300001E04006400E487170BD00000800002025
:1018400010B500F015F8FFF77DFF0848C1790029B1
:101850000AD0017A002907D0826A0023C16A521E89
:10186000DB4359418262C16210BD000008000020C4
:1018700010B500F0E1F80D494882401E80B2020622
:101880008882120E4A7902D0FD231A4001E0022319
:101890001A434A7102064A7902D580231A4301E0AD
:1018A0005206520E4A7100F025FB10BD08000020C0
:1018B0000C48C178491E0A06120EC27001464979C9
:1018C00002D0FD23194001E00223194341711106A2
:1018D000417902D58022114301E04906490E417148
:1018E00070470000080000200C480179491E0A06D4
:1018F000120E02710146497902D0FD23194001E020
:101900000223194341711106417902D58022114306
:1019100001E04906490E41717047000008000020AF
:1019200010B50F4C0120E07100F086F86082A178BC
:1019300041400806A182000E607902D0FD221040CD
:1019400001E00222104360710806607902D580220E
:10195000104301E04006400E6071A17010BD000010
:1019600008000020F8B5264C236B626B18184A411A
:1019700062632063E76AA66A37E06089411C61817F
:1019800000F0CEFAA0716179202211436171002527
:101990001B49E57180002572383108588047A079CD
:1019A0001849800008588047A079174980000858D6
:1019B000A16AE26A40185541E562A062E179002916
:1019C00007D0217A002904D00021401C4D41E56256
:1019D000A062206A616A0022401C5141616220625B
:1019E0002078002801D0A0698047204628300FC801
:1019F000801A9941C1D3A06AE16A801BB941F8BD40
:101A000008000020400400205C25000813B50F23C7
:101A1000012269460248FFF70BF900981CBD00003F
:101A20004C080020034908784006400E00220A7046
:101A30007047000000000020074810B58179024679
:101A4000890038325158054A914201D1807810BD41
:101A5000C08900F065FA10BD080000204D13000891
:101A600002494889C881401C48817047080000200D
:101A70007047000010B5FFF7DFFF0D494882401C9A
:101A800080B202068882120E4A7902D0FD231A40E3
:101A900001E002231A434A7102064A7902D58023E3
:101AA0001A4301E05206520E4A7100F023FA10BDAB
:101AB0000800002070B50F4D688900F031FA044627
:101AC0006889401C80B200F02BFA00022043060A0D
:101AD000411C3602C9B20E4300F022FA04463046D9
:101AE00000F01EFA00020443EC816889801C6881C2
:101AF00070BD00000800002070B50A4D6889411CC7
:101B0000698100F00DFAE9784018C4B2204600F06F
:101B100007FA0646641CE0B200F002FA000206432F
:101B2000EE8170BD0800002070B50F4C6089411C2B
:101B3000618100F0F5F9411CC9B20E4600F0F0F9E0
:101B40000546304600F0ECF9000205432179280AE9
:101B5000691889B2E181090A00020902814201D0B3
:101B60000120207270BD0000080000200C48C178E0
:101B7000491C0A06120EC2700146497902D0FD23A3
:101B8000194001E00223194341711106417902D540
:101B90008022114301E04906490E4171704700005F
:101BA000080000200C480179491C0A06120E027137
:101BB0000146497902D0FD23194001E0022319436F
:101BC00041711106417902D58022114301E0490695
:101BD000490E4171704700000800002010B5FFF762
:101BE00049FF00F0B5FA0848C17900290AD0017A06
:101BF000002907D0826A0023C16A521EDB43594183
:101C00008262C16210BD0000080000200148C18945
:101C1000418170470800002010B5044C6089401EC7
:101C200080B200F03DF9E089608110BD080000201D
:101C300010B500F003F800F01FF810BD10B50D4C02
:101C40000120E071FFF7F8FE60820006000EA07030
:101C5000617902D0FD22114001E00222114361713D
:101C6000000603D5C8B28021084301E04806400EB3
:101C7000607110BD0800002010B50D4C0120E0710E
:101C8000FFF7DAFE60820006000EE070617902D094
:101C9000FD22114001E0022211436171000603D5CB
:101CA000C8B28021084301E04806400E607110BDB3
:101CB0000800002010B50D4C0120E071FFF7BCFEBC
:101CC00060820006000E2071617902D0FD22114071
:101CD00001E0022211436171000603D5C8B28021E0
:101CE000084301E04806400E607110BD0800002066
:101CF00010B5FFF7A1FE12490246488240088882CB
:101D0000D2074A7902D001231A4301E05208520057
:101D10004A710206120E4A7902D0FD231A4001E0F0
:101D200002231A434A7102064A7902D580231A43D4
:101D300001E05206520E4A7100F0DCF810BD0000BE
:101D400008000020FEF70AFBFFF72AF8FEF7D6FF8F
:101D500000F028F9012205490548FEF713FF7D240C
:101D6000E40020460021FFF7FDFDFAE70000002017
:101D70004C080020094881797C290BD006DC1C29FD
:101D800008D03C2906D05C2906D103E0DC2901D02B
:101D9000FC2901D10121C171704700000800002019
:101DA00010B50F4C0120E071FFF746FE6082A1786C
:101DB00001430806A182000E607902D0FD22104086
:101DC00001E00222104360710806607902D580228A
:101DD000104301E04006400E6071A17010BD00008C
:101DE0000800002010B50248807800F071F810BD9E
:101DF0000800002010B5034810214079084300F086
:101E000067F810BD0800002010B500F03BF80A4943
:101E1000002888704A7902D0FD231A4001E002238D
:101E20001A434A71000603D5D0B28022104301E064
:101E30005006400E487110BD0800002010B500F09B
:101E400021F8202108430149487110BD08000020F5
:101E500070B50B4C6078401CC0B2FF30013000F010
:101E60005FF805466078801CC0B2FF30013000F09A
:101E700057F8000261782843891C617070BD00002A
:101E80000800002010B505494878401CC0B24870D1
:101E9000FF30013000F044F810BD000008000020C1
:101EA00070B50A4C0546010A6078FF30013000F039
:101EB0009BFA6078E9B2401EC0B2FF30013000F0FA
:101EC00093FA6078801E607070BD000008000020EA
:101ED00010B5054B01465A78501E5870D01DF93088
:101EE00000F082FA10BD00000800002010B5FFF7D6
:101EF0008DFD10BD084A10B591791346890038331D
:101F00005958064B994201D1907010BDC1B2D08989
:101F100000F06AFA10BD0000080000204D13000810
:101F2000124900B5884202D1FFF77CFD00BD0321B4
:101F30008903884211D3411A0D4A89B2914202D2D3
:101F40000C48405C00BD3F221202914205D30A4872
:101F5000401851424018007800BD0121C902884252
:101F600002D20649085C00BD002000BD04F000005C
:101F70001D2900005C2900085C240008BC08002022
:101F800010B5074C6089411C6181FFF7C9FF2082B1
:101F9000010603D5FF2109020843208210BD00007D
:101FA0000800002010B50B48FFF7BAFF04460948A7
:101FB000401CFFF7B5FF00020443074900204C8195
:101FC0008870C8700871FF2048704879202210433B
:101FD000487110BDFCFF00000800002010B500F0A3
:101FE00015F8FFF70BFA0848C17900290AD0017AE1
:101FF000002907D0826A0023C16A521EDB4359417F
:102000008262C16210BD00000800002010B5FFF719
:1020100013FD134948824A794000D307DB0F184368
:1020200080B28882030A02D001231A4301E05208D9
:1020300052004A710206120E4A7902D0FD231A405C
:1020400001E002231A434A7102064A7902D580232D
:102050001A4301E05206520E4A71FFF74BFF10BDC2
:102060000800002010B5FFF7E7FC1349034648823B
:102070004A794008D407240E20438882DB0702D027
:1020800001231A4301E0520852004A710206120E5F
:102090004A7902D0FD231A4001E002231A434A7113
:1020A00002064A7902D580231A4301E05206520EF5
:1020B0004A71FFF71FFF10BD0800002010B5FFF7A1
:1020C000D1FFFFF745F90848C17900290AD0017A04
:1020D000002907D0826A0023C16A521EDB4359419E
:1020E0008262C16210BD00000800002010B5FFF739
:1020F000C9FE034C6071FFF7ABFE6082608110BDCA
:102100000800002010B5FFF7A3FE02494882401CDA
:10211000488110BD0800002010B500F0C5F800F09F
:10212000CBF80A4CA078E1780840FFF7E3FEE079AD
:1021300000280AD0207A002807D0A06A0022E16A8D
:10214000D243401E5141E162A06210BD0800002050
:1021500070B52C4C0125E571FFF76EFCFF2148405E
:1021600060826379A278DE071118F60F891989B2A7
:10217000A1820E0A01D02B4301E05B085B00637172
:102180000B061B0E637902D0FD26334001E00226C8
:10219000334363710B46534048400340180660794F
:1021A00002D54023184301E0BF23184060710806A0
:1021B000607902D58023184301E04006400E60712B
:1021C000C0B203071BD54308663AD0B25B000207D2
:1021D0006371120FA070092A01D9801DA070C0B2CE
:1021E00002091201902A03D96030A0702B43637159
:1021F000A26AE06A521C00235841A262E062A17008
:1022000070BD0000080000200248012241791143FE
:1022100041717047080000200248082241791143AB
:10222000417170470800002002480422417911439F
:10223000417170470800002010B50249FFF756FEB3
:1022400010BD00004808002010B5FFF7F7F8FFF7B1
:10225000A7FD0848C17900290AD0017A002907D0D2
:10226000826A0023C16A521EDB4359418262C16205
:1022700010BD00000800002010B5FFF739FDFFF782
:102280004FFB0848C17900290AD0017A002907D0FC
:10229000826A0023C16A521EDB4359418262C162D5
:1022A00010BD00000800002010B502488078FFF73C
:1022B00021FE10BD0800002010B50248C078FFF7CD
:1022C00019FE10BD0800002010B502480079FFF784
:1022D00011FE10BD080000200B488178C170024635
:1022E0005279002902D0FD231A4001E002231A434B
:1022F0004271090603D5D1B28022114301E0510693
:10230000490E417170470000080000200B48817899
:10231000017102465279002902D0FD231A4001E0E2
:1023200002231A434271090603D5D1B28022114318
:1023300001E05106490E417170470000080000207D
:102340000B484178C17002465279002902D0FD2322
:102350001A4001E002231A434271090603D5D1B2A3
:102360008022114301E05106490E4171704700007F
:10237000080000200B48C17881700246527900297C
:1023800002D0FD231A4001E002231A4342710906DC
:1023900003D5D1B28022114301E05106490E4171AB
:1023A00070470000080000200148C1784170704764
:1023B000080000200B4801798170024652790029FB
:1023C00002D0FD231A4001E002231A43427109069C
:1023D00003D5D1B28022114301E05106490E41716B
:1023E0007047000008000020012210B5D202904280
:1023F00001D2044A1154044A904202D10846FFF720
:102400001BFF10BDBC08002001F0000010B5044CFB
:102410006089411C6181FFF783FDE08110BD0000F0
:102420000800002010B5054C6089411C6181FFF750
:1024300077FDE1784018C0B2E08110BD08000020AF
:1024400010B5054C6089411C6181FFF769FD217958
:102450004018C0B2E08110BD08000020000000005C
:10246000000000000000000000000000000000006C
:10247000000000000000000000000000000000005C
:10248000000000000000000000000000000000004C
:10249000000000000000000000000000000000003C
:1024A000000000000000000000000000000000002C
:1024B000000000000000000000000000000000001C
:1024C000000000000000000000000000000000000C
:1024D000000000000000000000000000D8A2FF9AE9
:1024E000A01CB9BBFF99040288D0F7B9D8FFF00649
:1024F00020EDE0C8D0F520EAE090FB29DFC957F0D5
:1025000007C943D0D74C00C04C00008D01F060AD2E
:1025100004F0F00238601860B3FFAFFFBBFFBBFFF1
:1025200048A5DF4A05DF85DF684048A5DC4A05DCB1
:1025300085DC68400D0A363530322045684241530B
:102540004943205B435D6F6C642F5B575D61726D27
:10255000203F00000000170280FF0D02070000006E
:102560000600000002000000080000000300000058
:10257000030000000500000005000000030000004B
:102580000200000002000000020000000400000041
:102590000400000006000000060000000200000029
:1025A0000500000002000000080000000400000018
:1025B0000400000006000000060000000200000009
:1025C00004000000020000000700000004000000FA
:1025D00004000000070000000700000006000000E3
:1025E00006000000020000000800000003000000D8
:1025F00003000000050000000500000004000000CA
:1026000002000000020000000200000004000000C0
:1026100004000000060000000600000002000000A8
:102620000500000002000000080000000400000097
:102630000400000006000000060000000200000088
:102640000400000002000000070000000400000079
:102650000400000007000000070000000600000062
:102660000600000002000000080000000300000057
:10267000030000000500000005000000030000004A
:102680000200000002000000020000000300000041
:102690000400000006000000060000000200000028
:1026A0000500000002000000080000000400000017
:1026B0000400000006000000060000000200000008
:1026C00004000000020000000700000004000000F9
:1026D00004000000070000000700000006000000E2
:1026E00006000000020000000800000003000000D7
:1026F00003000000050000000500000004000000C9
:1027000002000000020000000200000005000000BE
:1027100004000000060000000600000002000000A7
:102720000500000002000000080000000400000096
:102730000400000006000000060000000200000087
:102740000400000002000000070000000400000078
:102750000400000007000000070000000200000065
:102760000600000002000000060000000300000058
:10277000030000000300000003000000020000004E
:10278000020000000200000002000000040000003F
:10279000040000000400000004000000020000002B
:1027A0000600000002000000060000000400000017
:1027B000040000000400000004000000020000000B
:1027C00005000000020000000500000005000000F8
:1027D00005000000050000000500000002000000E8
:1027E00006000000020000000600000003000000D8
:1027F00003000000030000000300000002000000CE
:1028000002000000020000000200000004000000BE
:1028100004000000040000000400000002000000AA
:102820000500000002000000050000000400000098
:10283000040000000400000004000000020000008A
:10284000040000000200000004000000040000007A
:10285000040000000400000004000000020000006A
:102860000600000002000000080000000300000055
:102870000300000005000000050000000200000049
:10288000020000000200000002000000040000003E
:102890000400000006000000060000000200000026
:1028A0000500000002000000080000000400000015
:1028B0000400000006000000060000000200000006
:1028C00004000000020000000700000004000000F7
:1028D00004000000070000000700000002000000E4
:1028E00006000000020000000800000003000000D5
:1028F00003000000050000000500000002000000C9
:1029000002000000020000000200000004000000BD
:1029100004000000060000000600000002000000A5
:102920000500000002000000080000000400000094
:102930000400000006000000060000000200000085
:102940000400000002000000070000000400000076
:10295000040000000700000007000000A004B9F612
:10296000E09900028810F7A2FF86889AA94C85A1F9
:10297000A21CBDFAE095BBCAD0F8A212BD17E19522
:1029800000CA10F8A90085DC85DF85B28567A90E2D
:102990008564A90385A0A26886652092C8A92AA09B
:1029A000E120D3C82040C286C384C420C200D01F07
:1029B000A000E611D008E612A512C9C0F01DA95565
:1029C0009111D111D0150A9111D111F0E5D00C203F
:1029D000A6D9A5ACC998B0A220F7D4A511A412C05D
:1029E0000190978585848685818482A000A20384D6
:1029F00079867A989179E6792092C82050C3A58586
:102A000038E579AAA586E57A2082DAA939A0E120FD
:102A1000D3C8A95AA0C1850184026C0100200BC152
:102A2000857F848038A5A6E5AAA8A5A7E5ABAAE876
:102A300098F0243849FF65A685A6B003C6A7389844
:102A400049FF65A485A4B008C6A59004B1A691A4C9
:102A500088D0F9B1A691A4C6A7C6A5CAD0F2608550
:102A600078BAE478903060C482902AD004C581900E
:102A70002448A2089848B5A3CA10FA20DFD1A200C2
:102A80006895A4E8E00830F868A868C4829006D089
:102A900005C581B00160A20C2092C8BDA9E6BCAA00
:102AA000E620D3C82089C3A9E6A0E720D3C8A4881C
:102AB000C8F0032077DAA90085DF85DCA9F7A0E755
:102AC00020D3C8204DC286C384C420C200F0F4A223
:102AD000FF86889006207EC24CF3C42055C7207E16
:102AE000C2845D2024C39044A001B1AA8572A57B55
:102AF0008571A5AB8574A5AA88F1AA18657B857B2D
:102B00008573A57C69FF857CE5ABAA38A5AAE57B22
:102B1000A8B003E8C6741865719003C67218B17145
:102B20009173C8D0F9E672E674CAD0F2AD2102F012
:102B30003FA585A48685818482A57B85A6A47C8407
:102B4000A7655D9001C885A484A520C1C0A57FA408
:102B500080857B847CA45D88B91D0291AA88C0030E
:102B6000D0F6A51291AA88A51191AA88A9FF91AAC9
:102B70002065C3A679A57AA00186718572B171F02E
:102B800018A004C8B171D0FB38986571AAA0009153
:102B900071986572C8917190E04C67C120EBC820B4
:102BA000E8C8D00520EDC8CA2CA20020EAE090FBBE
:102BB000F0F9C907F010C90DF019E000D004C921DF
:102BC00090E9C908F0DEE047B00C9D2102E820ED55
:102BD000C8D0D84C89C8A907D0F4A0FF38A5C3E94C
:102BE00021AA8660BD2102F051C95FB04DC93CB039
:102BF0000EC930B045855CC922F061C92A903B24DA
:102C0000607037867884BAA0108473A0E38474A0BF
:102C100000D173F0059021C8D0F7980AAABD2EE321
:102C20008573BD2FE38574A0FFA678C8B173300803
:102C3000E8DD2102F0F5D02BA4BAE8C8992102C939
:102C400000F032E93AF004C949D00285604957D012
:102C500093855CBD2102F0E2C55CF0DEC8992102DB
:102C6000E8D0F0A678B17308C82810F9B173D0BEC7
:102C7000BD210210C3C8C8992102C8C8C8C6C36014
:102C8000A579A67AA00185AA86ABB1AAF01AA003FD
:102C9000B1AA88C512D004B1AAC511B00988B1AAD9
:102CA000AA88B1AA90DEF0011860D0FDA900A89111
:102CB00079C8917918A5796902857BA57A6900851B
:102CC0007C18A57969FF85C3A57A69FF85C4A585A8
:102CD000A48685818482A57BA47C857D847E857F76
:102CE00084802044C5A268866568AA688EFE018D2E
:102CF000FF01A2FD9AA900858C856160F0D06090EB
:102D000006F004C9B7D0F42055C72024C320C20060
:102D1000F00CC9B7D09320BC002055C7D08BA511AB
:102D20000512D006A9FF85118512A00184602092AA
:102D3000C8B1AAF03E2014C5C8B1AAAAC8B1AAC594
:102D400012D004E411F002B02A84972082DAA9207C
:102D5000A497297F20EDC8C922D006A56049FF8528
:102D600060C8B1AAD00EA8B1AAAAC8B1AA86AA857D
:102D7000ABD0B76010DE246030DAA2E50A0A900218
:102D8000E81869119001E8857386748497A000B1F2
:102D900073AAC8B173CAF0B820EDC8C8B17348C8E7
:102DA000B173A0008574688573B173CAF0A220ED79
:102DB000C8C8D0F5A980856120B4C76868A910206B
:102DC00003C1209DC6189865C348A5C4690048A5DD
:102DD0008848A58748A9AD20F1CB20D0CA20CDCA0C
:102DE000A5B0097F25AD85ADA997A0C48571847272
:102DF0004C84CBA9E0A0E1207DD820C200C9B2D08C
:102E00000620BC0020CDCA20E9D885B02079CBA50A
:102E10009848A59748A981482014C5A5C3A4C4A66D
:102E200088E8F004858B848CA000B1C3F007C93A10
:102E3000F01D4C02CCA002B1C318F056C8B1C38536
:102E400087C8B1C385889865C385C39002E6C4204E
:102E5000BC0020FCC44CBCC4F0540AB0034CB4C742
:102E6000C956B0CEA8B908E248B907E2484CBC0040
:102E70006C0302C903B00118D067A5C44902F01061
:102E80004902A4C3848B858CA587A4888589848AFC
:102E900068689007A9DEA0E74C4FC14C5AC1D00F1B
:102EA00038A579E901A47AB00188858F84906020E3
:102EB00055C720A0C6A588C512B00B983865C3A613
:102EC000C49007E8B004A579A67A2028C3B0034CC3
:102ED00072C6A5AAE901A4ABB0D090CD208CD4864F
:102EE0000D60D0FDA48CD005A21E4C3CC1A993203E
:102EF00014DFA9932017DF84C4A58B85C3A589A4FB
:102F00008A8587848860D0034C65C32072C3F02E05
:102F1000A9052003C1A5C448A5C348A58848A5871D
:102F200048A99D4820C2004CBCC4A9052003C1A5E6
:102F3000C448A5C348A58848A58748A98D4820C28C
:102F40000020EBC54CBCC42055C720A0C6A588C531
:102F500012B00B983865C3A6C49007E8B004A579F1
:102F6000A67A2028C39067A5AAE90185C3A5ABE985
:102F70000085C460A2224C3CC1A8BABD0301C99D12
:102F8000D0F2E8E89A98F020C93AF01CE9B3AAF028
:102F900004CAD062CA869820BC0020E1CAA5ACF061
:102FA00002A9FFBA4598D01ABD02018587BD030169
:102FB0008588BD040185C3BD050185C420C2004CC0
:102FC000BCC4E8E8E8E8E89A4C8CC6A2042CA20E3F
:102FD0004C3CC1D09E686868C98DD0EF6885876811
:102FE00085886885C36885C4209DC6981865C38593
:102FF000C39002E6C4604C02CCA23A2CA200A0000E
:10300000845C8A455C855CB1C3F0EAC55CF0E6C8C7
:10301000C922D0F3F0EC20E1CA20C200C9B0F011FF
:10302000C989D0D2A6C3A4C420BC00B0C986C384B9
:10303000C4A5ACF01B20BC00B0034CEBC5C990D0BC
:10304000034CFEC420FCC4A000B1C3C9ACF099601D
:10305000A000A201C8B1C3F00FC98BD003E8D0F41F
:10306000C9ACD0F0CAD0EDC8981865C385C390022A
:10307000E6C420C20090C34CFCC420A0C64C8FC63E
:103080004C02CCC9A9D0034C38DFC9AAD0034C3CB0
:10309000DF208CD448C98DF004C989D0E3C6AFD0F5
:1030A00004684CFEC420BC002055C7C92CF0EE6853
:1030B00060A20086118612B0F7E019A8B0DDE92FF2
:1030C000A8A5110A26120A2612651185118A651211
:1030D00006112AAA98651185119001E820BC004CC0
:1030E00059C7A9E42CA9E04820AACDA65F301E85C7
:1030F000978498207DD86848A0E120BED520A3D829
:1031000020C200C92CD0A820BC004C8CC74CDCCA03
:1031100020AACD85978498A9C120F1CBA55F48202E
:10312000E1CA682A20D3CAD0034CA3D8A002B1AE0A
:10313000C5829017D00788B1AEC581900EA4AFC4E8
:103140007C9008D00DA5AEC57BB007A5AEA4AF4C52
:103150000CC8A000B1AE2032D1A59EA49F85B88432
:10316000B92011D3A9ACA000859E849F2073D3A061
:1031700000B19E9197C8B19E9197C8B19E919760FA
:1031800020AACD859784982000DFA65F3007A8206D
:1031900066D04CA3D848A901B00168203AD1F00507
:1031A00068A00091AD2085D14CD0C720D6C820C2E0
:1031B00000F03BC9ABF056C9AFF052C92CF038C98A
:1031C0003BF06620E1CA245F30E12095DA2044D14B
:1031D000A000A50FF00A38E50EF1AEB0032092C8AA
:1031E00020D6C8F0C9A9009D2102A221A002A90DE4
:1031F00020EDC8A90AD052A50EC51090052092C88E
:10320000D02738E564B0FC49FF6901D01248208915
:10321000D4C929D07B68C9ABD0068AE50E900AAA2A
:103220008AF00620E8C8CAD0FA20BC00D085602009
:1032300044D1203ED3A000AAF049B17120EDC8C806
:10324000CAD0F760A9202CA93FC920901948A50F22
:10325000D00AA50EE564D00B850EF007C50ED0038D
:103260002092C8E60E6820EDE0C90DD0148678A63D
:103270000DF00AA90020EDC8CAD0FAA90D860EA645
:103280007829FF60A562100BA58DA48E85878488A0
:103290004C02CCA912A0E820D3C8A58BA48C85C36E
:1032A00084C460C922D00B20BECBA93B20F1CB2027
:1032B000D6C8206AD02040C2A900CD2102D00A1869
:1032C0004C2CC5A68FA490A98085628691849220FB
:1032D000AACD85978498A5C3A4C485118412A6910C
:1032E000A49286C384C420C200D011246230652019
:1032F000EBC82040C286C384C420C200245F1024CF
:10330000855BC922F007A93A855BA92C18855CA5C5
:10331000C3A4C469009001C8204AD120CFD420D0D2
:10332000C74CCEC920A6D920A3D820C200F00AC914
:103330002CF0034C28C920BC00A5C3A4C4859184EB
:1033400092A511A41285C384C420C200F02C20FED3
:10335000CB4C73C9209DC6C8AAD012A206C8B1C35F
:10336000F073C8B1C3858DC8B1C3C8858EB1C3C859
:10337000AA208FC6E083F081D0DAA591A492A6623C
:1033800010034C4EC5A000B191D00160A901A0E886
:103390004CD3C8BAE8E8E8E8BD0101C981D021A54D
:1033A00098D00ABD02018597BD03018598DD030110
:1033B000D007A597DD0201F0078A186910AAD0D8B6
:1033C00060D004A000F00320AACD85978498203710
:1033D000CAF004A200F0639A8A38E9F7857369FBA2
:1033E000A001207DD8BABD080185B0A597A498207A
:1033F000BED520A3D8A0012019D9BADD0801F01745
:10340000BD0D018587BD0E018588BD100185C3BD39
:103410000F0185C44CBCC48A690FAA9A20C200C996
:103420002CD0F120BC00206BCA20E1CA182438241B
:103430005F3003B00360B0FDA2184C3CC1A6C3D0FE
:1034400002C6C4C6C3A90048A9022003C120CDCB2F
:10345000A900859B20C20038E9C09017C903B013AA
:10346000C9012A4901459BC59B9067859B20BC00EB
:103470004CFBCAA69BD02CB079690A9075D0072462
:103480005F10034CD4D285710A6571A868D9E9E24E
:10349000B06520D0CA482062CB68A4991019AAF060
:1034A00076D05D265F8A855F2AA6C3D002C6C4C6D1
:1034B000C3A024859BD0D5D9E9E2B04490D7B9EB1D
:1034C000E248B9EAE2482079CBA59B48B9E9E24C49
:1034D000EBCA4C02CC688571E671688572A5B0486C
:1034E00020D9D8A5AF48A5AE48A5AD48A5AC486C35
:1034F0007100A0FF68F020C964F00320D0CA84994D
:10350000684A85636885B36885B46885B56885B69B
:103510006885B745B085B8A5AC60A5C3A4C46900EB
:103520009001C82044D14CCFD420BC00B0034CA69D
:10353000D9AA302FC924F0F6C925F0F2C92EF0EE31
:10354000C922F0D6C928D04F20E9CAA929A000D1A4
:10355000C3D00B4CBC00A928D0F3A92CD0EFA202F9
:103560004C3CC1C9B7F029C9B6F0BEC9B1D013A04F
:1035700021D01F20A6CEA5AF49FFA8A5AE49FF4C7C
:1035800059D0C9AED0034CB4D0E9C3B0194C02CC69
:10359000A01E68684C3ACB20AACD85AE84AFA65F4A
:1035A00030034C7DD8600AA8B9A4E248B9A3E24828
:1035B000B95EE2F00548B95DE2486020ECCB4CD240
:1035C000CA20ECCB4CD0CA465F4CBC0020E9CA20D4
:1035D000FECB20D2CA68AA68A8A5AF48A5AE489875
:1035E000488A48208CD48A6020E9CA20D0CAA5AC79
:1035F000C998B0202050D9A202B5AD9511CA10F9D2
:1036000020C200A200C929F00A20DED420C200C9CD
:1036100029D001604C29CF20E2CC455BA8A5AE455E
:103620005C4C59D020E2CC055BA8A5AE055C4C599A
:10363000D020E2CC255BA8A5AE255C4C59D020A6B5
:10364000CEA5AE855CA5AF855B20C3D520A6CEA553
:10365000AF6020D3CAB013A5B7097F25B485B4A93C
:10366000B3A0002017D9AA4C3FCD465FC69B203E91
:10367000D385AC86AD84AEA5B5A4B62042D386B5BD
:1036800084B6AA38E5ACF008A9019004A6ACA9FF5D
:1036900085B0A0FFE8C8CAD007A6B0300F18900CBC
:1036A000B1B5D1ADF0EFA2FFB002A201E88A2A25A0
:1036B00063F002A9FF4CFAD820FECBAA20AFCD20A0
:1036C000C200D0F460209FCDA5AEA678F022E01015
:1036D000B02306AF2ACAD0FAA4AF4C59D0209FCD50
:1036E000A5AEA678F00AE010B00B4A66AFCAD0FAD1
:1036F000A4AF4C59D0A900A84C59D0208FD48678BB
:1037000020C3D54CA6CEA20020C200865E85932998
:103710007F201ECEB0034C02CCA200865F20BC00EE
:103720009005201ECE900BAA20BC0090FB201ECE40
:10373000B0F6C924D00BA9FF855F8A0980AA20BCF6
:103740000086940561C928D0034CB8CEA9008561D4
:10375000A57BA67CA00086AB85AAE47ED004C57DAF
:10376000F02CA593D1AAD008A594C8D1AAF0698855
:1037700018A5AA690690E1E8D0DCC961B00AC94180
:103780009005E95B38E9A560E97B38E98560684820
:10379000C93DD005A9E1A0E160A57DA47E85AA84EC
:1037A000ABA57FA48085A684A71869069001C8856B
:1037B000A484A520C1C0A5A4A4A5C8857D847EA09D
:1037C00000A59391AAC8A59491AAA900C891AAC8D6
:1037D00091AAC891AAC891AAA5AA186902A4AB90F7
:1037E00001C88595849660A55D0A690565AAA4ABA4
:1037F0009001C885A484A56020BC0020CDCAA5B0D6
:10380000300DA5ACC9909009A9E8A0E12017D9D046
:10381000744C50D9A55E48A55F48A0009848A5946F
:1038200048A59348209CCE68859368859468A8BA7B
:10383000BD020148BD010148A5AE9D0201A5AF9D95
:103840000101C820C200C92CF0D2845D20EFCB68F2
:10385000855F68855EA67DA57E86AA85ABC580D07E
:1038600004E47FF039A000B1AAC8C593D006A5949E
:10387000D1AAF016C8B1AA1865AAAAC8B1AA65ABA0
:1038800090D7A2102CA2084C3CC1A212A55ED0F782
:10389000208BCEA55DA004D1AAD0E74CC5CF208B4C
:1038A000CE200BC1A00084BBA59391AAC8A594917A
:1038B000AAA55DA00484BA91AA18A20BA900245E4F
:1038C0005007686901AA686900C891AAC88A91AAC4
:1038D0002014D086BA85BBA471C65DD0DD65A5B0C5
:1038E0005D85A5A88A65A49003C8F052200BC18508
:1038F0007F8480A900E6BBA4BAF0058891A4D0FB20
:10390000C6A5C6BBD0F5E6A538A002A57FE5AA915D
:10391000AAC8A580E5AB91AAA55ED053C8B1AA8577
:103920005DA90085BA85BBC868AA85AE6885AFD198
:10393000AA900ED006C88AD1AA90074C26CF4C3A3E
:10394000C1C8A5BB05BAF00A2014D08A65AEAA98F2
:10395000A47165AF86BAC65DD0CB06BA2A06BA2A6C
:10396000A8A5BA65A485959865A58596A8A595602E
:103970008471B1AA857688B1AA8577A91085A8A295
:1039800000A0008A0AAA982AA8B0B306BA26BB905B
:103990000B188A6576AA986577A8B0A2C6A8D0E366
:1039A00060A55F1003203ED320DFD138A581E57FDD
:1039B000A8A582E580465F85AD84AEA2904C02D971
:1039C000A40EA900F0EFA688E8D0A4A2164C3CC132
:1039D00020A5D0859C849D206AD020FACBA9808523
:1039E0006120AACD20D0CA20EFCBA9C120F1CBA560
:1039F0009648A59548A5C448A5C348208CC64C1434
:103A0000D1A9AE20F1CB0980856120B1CD4CD0CABF
:103A100020A5D048984820FACB20E1CA20EFCB203F
:103A2000D0CA68859D68859CA220A003B19CF09DAA
:103A3000859688B19C8595AAC8B195488810FAA446
:103A40009620A7D8A5C448A5C348B19C85C3C8B1D2
:103A50009C85C4A59648A5954820CDCA68859C68D4
:103A6000859D20C200F0034C02CC6885C36885C4E4
:103A7000A00068919CC868919CC868919CC8689196
:103A80009C6020D0CA2095DAA9F0A000F012A6AE62
:103A9000A4AF869E849F20ADD186AD84AE85AC60F8
:103AA000A222865B865C85B884B985AD84AEA0FF12
:103AB000C8B1B8F00CC55BF004C55CD0F3C922F006
:103AC000011884AC9865B885BAA6B99001E886BBA0
:103AD000A5B9C903B00B982032D1A6B8A4B9201F4C
:103AE000D3A665E071D005A21C4C3CC1A5AC9500E5
:103AF000A5AD9501A5AE9502A00086AE84AF8884E1
:103B00005F8666E8E8E886656046604849FF386594
:103B100081A482B00188C4809011D004C57F900B2D
:103B20008581848285838484AA6860A20CA5603024
:103B3000B820DFD1A980856068D0D0A685A586860B
:103B4000818582A000849DA57FA68085AA86ABA9D9
:103B50006885718472C565F0052063D2F0F706A010
:103B6000A57BA67C85718672E47ED004C57DF005B8
:103B7000205DD2F0F385A486A5A90485A0A5A4A6FE
:103B8000A5E480D004C57FF07585718672A002B16E
:103B90007165A485A4C8B17165A585A5A001B171A1
:103BA00010DBA004B1710A69052095D2E4A5D00408
:103BB000C5A4F0CD2063D2F0F3C8B1711030C8B104
:103BC00071F02BC8B171AAC8B171C5829006D01E20
:103BD000E481B01AC5AB9017D004E4AA901186AA6C
:103BE00085ABA571A672859C869D888884A218A540
:103BF000A0657185719002E672A672A00060C6A0F1
:103C0000A69DF0F5A4A218B19C65AA85A6A5AB69EE
:103C10000085A7A581A68285A486A520C8C0A4A2E8
:103C2000C8A5A4919CAAE6A5A5A5C8919C4CE3D1E2
:103C3000A5AF48A5AE4820CDCB20D2CA6885B868CC
:103C400085B9A000B1B81871AE9005A21A4C3CC15C
:103C50002032D12011D3A59EA49F2042D32023D36C
:103C6000A5B8A4B92042D32085D14CF8CAA000B190
:103C7000B848C8B1B8AAC8B1B8A86886718472AA91
:103C8000F014A000B1719183C8CAD0F89818658368
:103C900085839002E6846020D2CAA5AEA4AF857168
:103CA00084722073D308A000B17148C8B171AAC84A
:103CB000B171A86828D013C482D00FE481D00B481A
:103CC00018658185819002E682688671847260C47D
:103CD00067D00CC566D0088565E9038566A00060DD
:103CE000208FD48A48A901203AD168A00091AD4C18
:103CF00085D14820F7D3D19E98F0094820F7D318F2
:103D0000F19E49FF9004B19EAA98488A48203AD172
:103D1000A59EA49F2042D368A868186571857190FC
:103D200002E672982023D34C85D148A9FF85AF20A5
:103D3000C200C929F00620FECB208CD420F7D3CABC
:103D40008A4818A200F19EB0C249FFC5AF90BDA538
:103D5000AFB0B920EFCB6885A26885A368AA688553
:103D60009E68859FA0008AF079E6A26CA200203BA5
:103D7000D385ACA8F038203AD186AD84AEA888B1FE
:103D8000712022CE90020920918398D0F1F01F205B
:103D90003BD385ACA8F017203AD186AD84AEA88875
:103DA000B171201ECE900229DF918398D0F14C850D
:103DB000D120BC0020AACD20EFCB20D2CAA002B1D6
:103DC00095AA88B195A88A4C59D02074D44C66D055
:103DD000203BD3A8602074D4F008A000B171A84C97
:103DE00066D04C29CF20BC0020CDCA20A2CEA4AEE4
:103DF000D0F0A6AF4CC2002074D4D0034C50D6A64D
:103E0000C3A4C486BA84BBA67186C31865718573C2
:103E1000A57285C469008574A000B1734898917338
:103E200020C20020A6D968A0009173A6BAA4BB86C0
:103E3000C384C46020CDCA20F1D420FECBA5124893
:103E4000A51148208CD468851168851260A5ACC97D
:103E500098B08F2050D9A5AEA4AF841185126020F0
:103E6000F1D4A200A111A84C66D020D8D48AA20017
:103E700081116020F1D4A200A111A8E611D002E6C0
:103E800012A1114C59D020CDCA20F1D48497859825
:103E900020FECB20CDCA20F1D498A2008197E697CE
:103EA000D002E698A51281974CC20020AACD859732
:103EB0008498A55F4820FECB20AACD68455F1010EE
:103EC000A003B197AAB19591978A91958810F36054
:103ED0004CDCCA20CDCA20F1D4A9D548A985486CAC
:103EE00011004CC20020D8D48697A20020C200F056
:103EF0000320DED48698B11145982597F0F860200C
:103F00008BD7A5B049FF85B045B785B8A5AC4CC1E6
:103F1000D520DAD6904DA9E9A0E1208BD7D010A505
:103F2000B785B0A204B5B295ABCAD0F986B960A680
:103F3000B986A3A2B3A5B3A8F0C438E5ACF0249029
:103F40001284ACA4B784B049FF6900A00084A3A286
:103F5000ACD004A00084B9C9F930B6A8A5B95601FF
:103F600020F1D624B8104CA0ACE0B3F002A0B338D6
:103F700049FF65A385B9B90300F50385AFB9020010
:103F8000F50285AEB90100F50185ADB0032096D6E6
:103F9000A0009818A6ADD03EA6AE86ADA6AF86AE60
:103FA000A6B986AF84B96908C918D0E8A90085AC5C
:103FB00085B06065A385B9A5AF65B685AFA5AE65CB
:103FC000B585AEA5AD65B485ADB01A60690106B919
:103FD00026AF26AE26AD10F438E5ACB0CF49FF6968
:103FE0000185AC900CE6ACF03666AD66AE66AF66A9
:103FF000B960A5B049FF85B0A5AD49FF85ADA5AEB7
:1040000049FF85AEA5AF49FF85AFA5B949FF85B981
:10401000E6B9D00AE6AFD006E6AED002E6AD60A2C1
:104020000A4C3CC1A274B40384B9B4029403B40131
:104030009402A4B29401690830ECF0EAE908A8A55A
:10404000B9B01216019002F6017601760176027679
:10405000036AC8D0EE186020E9D8F00210034C299A
:10406000CFA5ACE97F48A98085ACA969A0E120BEB5
:10407000D5A96DA0E12001D8A9E0A0E120A3D5A990
:104080005CA0E12051DCA971A0E120BED5682045EB
:10409000DAA975A0E1208BD7F04C20B1D7A9008513
:1040A0007585768577A5B92060D7A5AF2060D7A59F
:1040B000AE2060D7A5AD2065D74C6ED8D0034CC8D4
:1040C000D64A0980A8901318A57765B68577A57696
:1040D00065B58576A57565B485756675667666770A
:1040E00066B9984AD0DE6085718472A003B171858B
:1040F000B688B17185B588B17185B745B085B8A569
:10410000B7098085B488B17185B3A5AC60A5B3F05B
:104110001D1865AC90043031182C1012698085ACE4
:10412000D0034C54D6A5B885B060A5B0101B686804
:104130004C50D620CAD8AAF0F0186902B00BA200E1
:1041400086B820DBD5E6ACD0E04CC3D620CAD8A9CF
:10415000F1A0E1A20086B8207DD84C04D8208BD7EE
:10416000F06320D9D8A90038E5AC85AC20B1D7E6FA
:10417000ACF0D6A2FFA901A4B4C4ADD00AA4B5C4C2
:10418000AED004A4B6C4AF082A900EA001E8E002A5
:104190003004D028A040957598289014A8A5B6E5BD
:1041A000AF85B6A5B5E5AE85B5A5B4E5AD85B49842
:1041B00006B626B526B4B0CF30BD10CB4A6A6A85A4
:1041C000B9284C6ED8A2144C3CC1A57585ADA57616
:1041D00085AEA57785AF4C34D685718472A003B1C6
:1041E0007185AF88B17185AE88B17185B009808560
:1041F000AD88B17185AC84B960A2A4A000F004A61A
:1042000097A49820D9D886718472A003A5AF917124
:1042100088A5AE917188A5B0097F25AD917188A55B
:10422000AC917184B96020D9D8A205B5AB95B2CA5A
:10423000D0F986B960A5ACF0FB06B990F720B8D6E6
:10424000D0F24C89D6A5ACF009A5B02AA9FFB002DE
:10425000A9016020E9D885ADA90085AEA288A5ADE9
:1042600049FF2AA90085AF86AC85B985B04C2FD609
:1042700046B06085738474A000B173C8AAF0C6B15B
:104280007345B030C4E4ACD01AB1730980C5ADD069
:1042900012C8B173C5AED00BC8A97FC5B9B173E55B
:1042A000AFF028A5B0900249FF4CEFD8A5ACF04A7A
:1042B00038E99824B01009AAA9FF85B2209CD68AB3
:1042C000A2ACC9F9100620DAD684B260A8A5B0293C
:1042D0008046AD05AD85AD20F1D684B260A5ACC9F0
:1042E00098B01E2050D984B9A5B084B049802AA9BD
:1042F0009885ACA5AF855B4C2FD685AD85AE85AFD7
:10430000A860A000845FA20994A8CA10FB907FC98E
:104310002DD00486B1F004C92BD00520BC00906ECE
:10432000C924D0034C6EDEC925D0084C9CDE20BCCD
:1043300000905BC92EF02EC945D03020BC009017EC
:10434000C9B7F00EC92DF00AC9B6F008C92BF004A0
:10435000D00766AB20BC00905B24AB100EA90038E0
:10436000E5A94C11DA66AA24AA50C3A5A938E5A884
:1043700085A9F012100920F0D7E6A9D0F9F007209E
:10438000D7D7C6A9D0F9A5B13001604CF4DB4824D9
:10439000AA1002E6A820D7D768290F2045DA4CD208
:1043A000D94820CAD86820FAD8A5B745B085B8A69C
:1043B000AC4CC1D5A5A9C90A9009A96424AB300E9B
:1043C0004CC3D60A0A65A90AA00071C3E92F85A9C2
:1043D0004CF8D9A9EDA0E720D3C8A588A68785AD5C
:1043E00086AEA290382007D9A0009820A2DA4CD33C
:1043F000C8A001A92024B01002A92D99EF0085B012
:1044000084BAC8A6ACD005A9304CAEDBA900E081C7
:10441000B009A981A0E12039D7A9FA85A8A97DA072
:10442000E12017D9F01E1012A979A0E12017D9F0C8
:1044300002100E20D7D7C6A8D0EE20F0D7E6A8D01D
:10444000DC20BAD52050D9A201A5A81869073009E7
:10445000C908B00669FFAAA90238E90285A986A899
:104460008AF0021013A4BAA92EC899EF008AF006A8
:10447000A930C899EF0084BAA000A280A5AF18792E
:10448000F7E185AFA5AE79F6E185AEA5AD79F5E1A9
:1044900085ADE8B00410E5300230E18A900449FFB0
:1044A000690A692FC8C8C88495A4BAC8AA297F997F
:1044B000EF00C6A8D006A92EC899EF0084BAA4952B
:1044C0008A49FF2980AAC012D0B2A4BAB9EF0088E5
:1044D000C930F0F8C92EF001C8A92BA6A9F02E10FA
:1044E00008A90038E5A9AAA92D99F100A94599F0D4
:1044F000008AA22F38E8E90AB0FB693A99F3008AEA
:1045000099F200A90099F400F00899EF00A9009928
:10451000F000A9F0A00060F042A5B3D0034C52D641
:10452000A29CA00020A7D8A5B7100F2081D9A99CD4
:10453000A0002017D9D00398A45B20C5D5984820A7
:10454000FBD6A99CA0002039D720FFDB684A900A3F
:10455000A5ACF006A5B049FF85B060A985A0E12013
:1045600039D7A5B96950900320E1D885A320CDD8CB
:10457000A5ACC988900320CED72081D9A55B186946
:1045800081F0F338E90148A204B5B3B4AC95AC941A
:10459000B3CA10F5A5A385B920A6D520F4DBA98957
:1045A000A0E12067DCA90085B8684CB3D785BA8440
:1045B000BB209DD8A9A42039D7206BDCA9A4A000DA
:1045C0004C39D785BA84BBA2A8209FD8B1BA85B18F
:1045D000A4BAC898D002E6BB85BAA4BB2039D7A537
:1045E000BAA4BB1869049001C885BA84BB20BED5A3
:1045F000A9A8A000C6B1D0E460A5ACF007A2D8A0DD
:104600000020A7D8A2AFA01306D926DA26DB26D829
:1046100090058A45D985D988D0EEA202B5D995AD45
:10462000CA10F9A98085AC0A85B04C34D6A9A6A0D9
:10463000E120BED520CAD8A9BBA0E1A6B720F9D7F2
:1046400020CAD82081D9A90085B820A6D5A9EDA077
:10465000E120A3D5A5B048100D20BAD5A5B03009EA
:10466000A56349FF856320F4DBA9EDA0E120BED559
:1046700068100320F4DBA9AAA0E14C51DC209DD8EE
:10468000A900856320D8DCA29CA00020A7D8A9A4FB
:10469000A000207DD8A90085B0A5632049DDA99C94
:1046A000A0004C01D8484C0ADD200A004CEFCBA5F5
:1046B000B048100320F4DBA5AC48C9819007A9E0FD
:1046C000A0E12001D8A9BFA0E12051DC68C98190F8
:1046D00007A9A6A0E120A3D56810164CF4DB20D8CA
:1046E000D4E008B020A900382ACA10FCE8011181E2
:1046F000116020D8D4E008B00CA9FF2ACA10FCE849
:1047000021118111604C29CF20BC0020D8D4E008B1
:10471000B0F320C200C929F0034C02CC20BC00A990
:1047200000382ACA10FCE82111F002A9FF4CFAD87F
:10473000E019B0488678A918203AD1A017A21846E7
:1047400011661266138A2A91AD8810F3A578F00AD3
:10475000AA3849FF6918F01CD00FA8B1ADC930D0F4
:1047600007CAF003C810F4E8981865AD85ADA90034
:1047700065AE85AE86AC20BC004C85D14C29CFE01F
:1047800007B0F98678A906203AD1A005F8A513202C
:1047900051DEA5122051DEA5112051DED8A206A5BA
:1047A00078F0B7AA3849FF6906F0C9D0BCAA290F2A
:1047B000205CDE8A4A4A4A4AC90A693091AD88605B
:1047C00085ACA90085B88A2045DA20BC00900A098A
:1047D00020E961C906B02A690A290FAAA5ACF0E44C
:1047E000690490DC4CC3D6AAA5ACF006E6ACF0F4A4
:1047F000A90085B88A2045DA20BC004930C902905A
:10480000E64C2ADAAD0002D01820EAE0900B8D01C8
:1048100002A2208E02024C17C5AE0202F003CE02A5
:1048200002A2DC20D0DEA2DF20D0DE60B50010FBCB
:104830000A2940F0F695008AA86868A9052003C1F6
:10484000A5C448A5C348A58848A58748A98D48B9E7
:10485000010085C3B9020085C44CBCC420EAE0B0A5
:1048600009AD0202F009AD010238A2008E02026019
:10487000A2DF2CA2DCC993F011C9B5F00749A2F060
:104880000E4C02CCA97F35001005B5000A15009525
:10489000004CBC0058A2DF2CA2DC867820BC002093
:1048A00055C7A579A67A2028C3B0034C72C6A6784E
:1048B000A5AAE9019501A5ABE9009502A9C095005B
:1048C00060D0FDA5DF0A05DF85DF4C79C6D0F1A5F4
:1048D000DC0A05DC85DC4C79C620E9CA4CD0CA204C
:1048E000B1DF10FBA5B4098085B420C3D5F0F0205A
:1048F000B1DF30FBF0F9A5B4098085B420C3D5F051
:10490000EEC929D00568684CBC004C02CC20C2001E
:10491000C92CD0ED20D9D8A5B0097F25AD48A5AECA
:1049200048A5AF48A5AC4820BC0020CDCA6885B3D7
:104930006885B66885B56885B485B7A9B3A0004C0D
:1049400017D9C92CF01B208CD48AF00AE0109045AE
:10495000E464B0028664860F20C200F01AC92CD02D
:10496000A92089D48A302EE001902AA50FF006E410
:104970000FF002B0208664A50FF006C564B0038571
:104980006438E564B0FC65641865648510A50F386B
:10499000E5108510604C29CFA5B030F9A5ACF0F436
:1049A00020CAD8A900857785768575857885AF85F5
:1049B000AE85ADA218A5B34AB00E06B626B526B48C
:1049C000267726762675267806B626B526B4267767
:1049D00026762675267806AF26AE26ADA5AF2A85A3
:1049E0005BA5AE2A855CA5AD2A855DA9002A855EFA
:1049F000A577E55B855BA576E55C855CA575E55DE2
:104A0000A8A578E55E900E85788475A55C8576A569
:104A10005B8577E6AFCAD0A238A5B3E9806A6900A2
:104A200085AC4C34D620BC0020AACD20EFCBA49579
:104A3000A5964C59D0A9BBA0E1207DD8C6AC60A9F1
:104A4000BBA0E14C7DD86C05026C07026C09026CBE
:104A50000B02000000A8DEE6C3D002E6C4ADFFFFF3
:104A6000C9ACF00EC93AB00AC920F0EB38E93038C9
:104A7000E9D0604C00C0000000000000004C29CFCD
:104A8000000000F200030D0A4D656D6F727920730E
:104A9000697A6520002042797465732066726565C5
:104AA0000D0A0A456E68616E636564204241534990
:104AB0004320322E32320A0002801956628076225A
:104AC000F38238AA40803504F3813504F3808000F6
:104AD000008031721891434FF8947423F794742432
:104AE000008138AA3B067463908C77230CAB7A1E46
:104AF00094007C6342807E75FED080317215810007
:104B0000000081490FDB04861ED7FB879926658745
:104B100023345886A55DE183490FDB08783AC53711
:104B20007B83A25C7C2EDD4D7D99B01E7D59ED24EA
:104B30007E9172007E4CB9737FAAAA538100000057
:104B40008180000090800000007F00000084200031
:104B500000FE7960002710FFFC18000064FFFFF6DC
:104B60000000011AC557C464CA8BC646C95ECD662B
:104B7000C9B3C785C7EAC5A9C5B9C641C5CDC5640E
:104B8000DF70DF76C61DC718C526C77FC588C788F2
:104B9000D5EFE0F2E073D00DD529D576D5B3C51C9D
:104BA000C654C885C5A2C39FC34DC3E5DF23C84E05
:104BB000D581DD95DD13DF16DF64CC64CC64CCE8F1
:104BC000CAEBCBEBCB64CC64CC64CC64CC64CC645B
:104BD000CC64CC64CC64CC64CC00005ECC64CC5E91
:104BE000CC5ECC5ECC5ECC64CC8BCC8BCC00007C21
:104BF000DF7CDF6ACC6ACC00006FCC6FCC6FCCF668
:104C0000D880D913D94CDD44D063D03BE09CDCFA8A
:104C1000D6FEDBD0DCD7DC20DD52DD02D516D55444
:104C2000D46DD425D19AD478D432D411D483D3225C
:104C3000DED3DDABDD82DF92DFD8E0E2E0C8E095D5
:104C4000D39ED3CDD379C0D579A5D57B3BD77B0374
:104C5000D87FBADB50D4CC46BACC46C7CC5680CD30
:104C60005668CD7DF3DB5A16CC64F5CC2A2B2D2F5C
:104C70003C3D3E3F4142434445464748494C4D4EEA
:104C80004F505253545556575E0068E36AE36CE345
:104C90006EE370E374E376E37AE37CE38CE3A5E30D
:104CA000BCE3D5E3E4E3EEE3FBE301E413E438E43F
:104CB00046E458E460E475E4A4E4CFE4E3E4F4E417
:104CC00000E50FE5B800B600B700B9003CBFC20070
:104CD000C1003EBEC0009F00425328C54E44BB5396
:104CE0004328D7544E28D000494E2428DC49544349
:104CF0004C52A84954534554A7495454535428DDA1
:104D000000414C4C9C48522428DA4C454152A24F59
:104D10004E54A04F5328CD0041544183454388450C
:104D2000454B28D2454699494D854F4B459B4F9D54
:104D3000004C5345AC4E44804F52BC585028CC00D8
:104D40004EAE4F5281524528C7004554A54F53558A
:104D5000428D4F544F890045582428DB00468B4E26
:104D600043954E505554844E5428C45251A9004383
:104D70004153452428D94546542428E3454E28D498
:104D8000455487495354A14F4144974F4728CB4F2F
:104D90004F509E00415828DE49442428E5494E28BA
:104DA000DF004557A3455854824D49AA4F54B15589
:104DB0004C4C94004646B54E9352BD0045454B2899
:104DC000D149E04F4B459A4F5328C852494E549F02
:104DD0000045414486454D914553544F52458C45BD
:104DE000544952518E45544E4D498F455455524E5B
:104DF00090494748542428E44E4428CA554E8A0016
:104E000041444428D341564598474E28C3494E282B
:104E1000CE504328AF515228C9544550B2544F5038
:104E20009254522428D5574150A600414228AB4104
:104E30004E28CF48454EB04FAD574F5049E1004343
:104E40004153452428D84E54494CB3535228C600E8
:104E5000414C28D6415250545228E20041495496C0
:104E600048494C45B449445448A400BA000345D9C4
:104E7000E30346E6E3044E49E40444BCE305490683
:104E8000E40344CBE3045275E4034C24E40344C03C
:104E9000E30447F6E30352A0E4024901E407527C2D
:104EA000E40547F1E3065283E4065289E406528F93
:104EB000E4035279E40453C1E4024F5BE4044E532B
:104EC000E4034903E4045700E5044C2BE40453A92C
:104ED000E40344C8E3045067E40444CEE30443A578
:104EE000E30244D2E3044C33E405506FE40443B3DB
:104EF000E3044C27E40543AEE3034E46E4055709BB
:104F0000E50347EEE30453CAE4064297E306429101
:104F1000E303490FE4034E4DE40454CFE40445D5C4
:104F2000E30254DBE40246E4E30453B5E40454D75B
:104F3000E4034E50E40453BDE40555EAE405570488
:104F4000E5034F58E4012B0000012D0000012A0069
:104F500000012F0000015E0000034180E30345DCF7
:104F6000E3024F5DE4023E76E3023C70E3013E0063
:104F700000013D0000013C00000453ADE404490B76
:104F8000E404417CE30455EFE40446E9E304506B98
:104F9000E40453B9E404529CE4044C2FE40445DFD8
:104FA000E30443B7E30453B1E40454D3E404418776
:104FB000E3055060E40544C3E30553A4E4044C2036
:104FC000E40553C5E40456F4E4044183E30755E3E0
:104FD000E4074C13E40543A9E30548FBE305428CD1
:104FE000E307429DE3044D38E4044D41E40250657B
:104FF000E40554DDE40756F8E4064C1AE40752953C
:10500000E4054D3CE4CDE6DEE6E5E6FAE606E71427
:10501000E71DE72BE73FE74CE75DE76CE77BE789B8
:10502000E799E7ACE7BBE7CEE74E455854207769F0
:1050300074686F757420464F520053796E746178AE
:105040000052455455524E20776974686F7574202C
:10505000474F535542004F7574206F6620444154AA
:10506000410046756E6374696F6E2063616C6C00FD
:105070004F766572666C6F77004F7574206F66208F
:105080006D656D6F727900556E646566696E6564F5
:105090002073746174656D656E740041727261791C
:1050A00020626F756E647300446F75626C65206476
:1050B000696D656E73696F6E004469766964652019
:1050C0006279207A65726F00496C6C6567616C204B
:1050D0006469726563740054797065206D69736DDD
:1050E0006174636800537472696E6720746F6F2017
:1050F0006C6F6E6700537472696E6720746F6F20F7
:10510000636F6D706C65780043616E277420636F08
:105110006E74696E756500556E646566696E65646A
:105120002066756E6374696F6E004C4F4F50207728
:105130006974686F757420444F000D0A427265618E
:105140006B00204572726F720020696E206C696E70
:105150006520000D0A52656164790D0A00204578CA
:105160007472612069676E6F7265640D0A00205267
:1051700065646F2066726F6D2073746172740D0ABE
:10518000000000000000000000000000000000001F
:10519000000000000000000000000000000000000F
:1051A00000000000000000000000000000000000FF
:1051B00000000000000000000000000000000000EF
:1051C00000000000000000000000000000000000DF
:1051D00000000000000000000000000000000000CF
:1051E00000000000000000000000000000000000BF
:1051F00000000000000000000000000000000000AF
:10520000000000000000000000000000000000009E
:10521000000000000000000000000000000000008E
:10522000000000000000000000000000000000007E
:10523000000000000000000000000000000000006E
:10524000000000000000000000000000000000005E
:10525000000000000000000000000000000000004E
:10526000000000000000000000000000000000003E
:10527000000000000000000000000000000000002E
:1052800000010203040607080900000000010203F0
:1052900004000000B4520008000000204C08000088
:1052A000580100086C5400084C080020940C0000C1
:1052B00094120008014013711A1B08F9046908CB05
:1052C0000D240429181A61044B4D1308CBA51204B0
:1052D00013811F4C08291B2829081A2534A90429E1
:1052E000181A0D3C69081ACD34A9042944097A809A
:1052F000697809A680DAB584093E8029542978693D
:10530000080916806908A97C091A805A41040916FF
:1053100080290C290409D6806904091680690409CA
:105320007E801341161408A11D1B0875044B4922E9
:105330000829104B3D14109AF510291CE9200A1D6C
:1053400001400B1C05172013191C1B08FD98291878
:105350001ADDCC4B5115104B0D20108B3D1E102922
:1053600024E9205A811069402908A9201A096409F2
:105370001A201AED084B2119185A79A029101AF190
:105380009829109AE510291C1A0D08A9200B1C85D4
:1053900016400B1C2517201B0521D459A06ABDE41B
:1053A00019101A650C29108B091E106980A9201A82
:1053B000C580091A401A2964091A2029105AA99887
:1053C0001A198C1AC90C29101AB90429104BE9189A
:1053D0001C4B752308E9208B9114400912201AB543
:1053E0003829105AA940A97029041AB5D01A3D04C9
:1053F0001A79041A3104E9101A0D3829105AD934CF
:10540000E9201AD1802910291C0912404B351710A8
:105410001A41480912201AED201A450429401A4160
:10542000EC69101A710C29104BA51B101AB10C292C
:1054300024E920CBC115402908A920DA1560E9200C
:105440001A990C4B5121181ADD6C79104A1A101A4E
:105450006D0469202908E9201A1180A9406928698A
:0C546000200B1C1922205153127A00006E
:04000005080000B53A
:00000001FF
